{
  "contractName": "Doctor",
  "abi": [
    {
      "anonymous": false,
      "inputs": [
        {
          "indexed": false,
          "internalType": "uint32",
          "name": "doctorId",
          "type": "uint32"
        },
        {
          "indexed": false,
          "internalType": "string",
          "name": "firstName",
          "type": "string"
        },
        {
          "indexed": false,
          "internalType": "string",
          "name": "lastName",
          "type": "string"
        }
      ],
      "name": "NewDoctor",
      "type": "event"
    },
    {
      "anonymous": false,
      "inputs": [
        {
          "indexed": true,
          "internalType": "address",
          "name": "previousOwner",
          "type": "address"
        },
        {
          "indexed": true,
          "internalType": "address",
          "name": "newOwner",
          "type": "address"
        }
      ],
      "name": "OwnershipTransferred",
      "type": "event"
    },
    {
      "inputs": [],
      "name": "counterDoctor",
      "outputs": [
        {
          "internalType": "uint32",
          "name": "",
          "type": "uint32"
        }
      ],
      "stateMutability": "view",
      "type": "function"
    },
    {
      "inputs": [
        {
          "internalType": "address",
          "name": "",
          "type": "address"
        }
      ],
      "name": "doctorCount",
      "outputs": [
        {
          "internalType": "uint16",
          "name": "",
          "type": "uint16"
        }
      ],
      "stateMutability": "view",
      "type": "function"
    },
    {
      "inputs": [
        {
          "internalType": "uint256",
          "name": "",
          "type": "uint256"
        }
      ],
      "name": "doctors",
      "outputs": [
        {
          "internalType": "uint32",
          "name": "doctorId",
          "type": "uint32"
        },
        {
          "internalType": "string",
          "name": "firstName",
          "type": "string"
        },
        {
          "internalType": "string",
          "name": "lastName",
          "type": "string"
        },
        {
          "internalType": "string",
          "name": "hospitalAddress",
          "type": "string"
        }
      ],
      "stateMutability": "view",
      "type": "function"
    },
    {
      "inputs": [],
      "name": "isOwner",
      "outputs": [
        {
          "internalType": "bool",
          "name": "",
          "type": "bool"
        }
      ],
      "stateMutability": "view",
      "type": "function"
    },
    {
      "inputs": [],
      "name": "owner",
      "outputs": [
        {
          "internalType": "address payable",
          "name": "",
          "type": "address"
        }
      ],
      "stateMutability": "view",
      "type": "function"
    },
    {
      "inputs": [
        {
          "internalType": "address",
          "name": "",
          "type": "address"
        }
      ],
      "name": "ownerPatientCount",
      "outputs": [
        {
          "internalType": "uint32",
          "name": "",
          "type": "uint32"
        }
      ],
      "stateMutability": "view",
      "type": "function"
    },
    {
      "inputs": [],
      "name": "renounceOwnership",
      "outputs": [],
      "stateMutability": "nonpayable",
      "type": "function"
    },
    {
      "inputs": [
        {
          "internalType": "address payable",
          "name": "newOwner",
          "type": "address"
        }
      ],
      "name": "transferOwnership",
      "outputs": [],
      "stateMutability": "nonpayable",
      "type": "function"
    },
    {
      "inputs": [
        {
          "internalType": "string",
          "name": "_firstName",
          "type": "string"
        },
        {
          "internalType": "string",
          "name": "_lastName",
          "type": "string"
        },
        {
          "internalType": "string",
          "name": "_hospitalAddress",
          "type": "string"
        },
        {
          "internalType": "address",
          "name": "addressDoctor",
          "type": "address"
        }
      ],
      "name": "addDoctor",
      "outputs": [],
      "stateMutability": "nonpayable",
      "type": "function"
    }
  ],
  "bytecode": "0x60806040526000805463ffffffff60a01b1916905534801561002057600080fd5b50600080546001600160a01b03191633178082556040516001600160a01b039190911691907f8be0079c531659141344cd1fd0a4f28419497f9722a3daafe3b4186f6b6457e0908290a3610f11806100796000396000f3fe608060405234801561001057600080fd5b50600436106100925760003560e01c8063715018a611610066578063715018a6146104425780638da5cb5b1461044a5780638f32d59b1461046e578063b598e3941461048a578063f2fde38b1461049257610092565b806230e6d314610097578063099ddfbd146102585780632da40f28146102955780636efb1b84146102d4575b600080fd5b610256600480360360808110156100ad57600080fd5b8101906020810181356401000000008111156100c857600080fd5b8201836020820111156100da57600080fd5b803590602001918460018302840111640100000000831117156100fc57600080fd5b91908080601f016020809104026020016040519081016040528093929190818152602001838380828437600092019190915250929594936020810193503591505064010000000081111561014f57600080fd5b82018360208201111561016157600080fd5b8035906020019184600183028401116401000000008311171561018357600080fd5b91908080601f01602080910402602001604051908101604052809392919081815260200183838082843760009201919091525092959493602081019350359150506401000000008111156101d657600080fd5b8201836020820111156101e857600080fd5b8035906020019184600183028401116401000000008311171561020a57600080fd5b91908080601f016020809104026020016040519081016040528093929190818152602001838380828437600092019190915250929550505090356001600160a01b031691506104b89050565b005b61027e6004803603602081101561026e57600080fd5b50356001600160a01b0316610855565b6040805161ffff9092168252519081900360200190f35b6102bb600480360360208110156102ab57600080fd5b50356001600160a01b031661086b565b6040805163ffffffff9092168252519081900360200190f35b6102f1600480360360208110156102ea57600080fd5b5035610883565b604051808563ffffffff168152602001806020018060200180602001848103845287818151815260200191508051906020019080838360005b8381101561034257818101518382015260200161032a565b50505050905090810190601f16801561036f5780820380516001836020036101000a031916815260200191505b50848103835286518152865160209182019188019080838360005b838110156103a257818101518382015260200161038a565b50505050905090810190601f1680156103cf5780820380516001836020036101000a031916815260200191505b50848103825285518152855160209182019187019080838360005b838110156104025781810151838201526020016103ea565b50505050905090810190601f16801561042f5780820380516001836020036101000a031916815260200191505b5097505050505050505060405180910390f35b610256610a66565b610452610b09565b604080516001600160a01b039092168252519081900360200190f35b610476610b18565b604080519115158252519081900360200190f35b6102bb610b29565b610256600480360360208110156104a857600080fd5b50356001600160a01b0316610b3c565b6104c0610b18565b610511576040805162461bcd60e51b815260206004820181905260248201527f4f776e61626c653a2063616c6c6572206973206e6f7420746865206f776e6572604482015290519081900360640190fd5b6001600160a01b03811660009081526003602052604090205461ffff161561056a5760405162461bcd60e51b8152600401808060200182810382526030815260200180610eac6030913960400191505060405180910390fd5b60005461058a9063ffffffff600160a01b909104811690600190610ba116565b6000805463ffffffff60a01b1916600160a01b63ffffffff93841681029190911780835591926105c49291909104811690600190610c0b16565b6040805160808101825263ffffffff838116825260208083018a81529383018990526060830188905260018054808201825560009190915283517fb10e2d527612073b26eecdfd717e6a320cf44b4afac2b0732d9fcbe2b7fa0cf66004909202918201805463ffffffff1916919094161783559351805195965092949193610673937fb10e2d527612073b26eecdfd717e6a320cf44b4afac2b0732d9fcbe2b7fa0cf790910192910190610df2565b506040820151805161068f916002840191602090910190610df2565b50606082015180516106ab916003840191602090910190610df2565b50505063ffffffff818116600090815260026020908152604080832080546001600160a01b0319166001600160a01b038816908117909155835260039091529020546107019161ffff90911690600190610c4d16565b60036000846001600160a01b03166001600160a01b0316815260200190815260200160002060006101000a81548161ffff021916908361ffff1602179055507ff7e5f435fdefaa9ef5ed1e9b2e2bf9b6efb0d3dafa1c5b157f35b13522608dfc818686604051808463ffffffff1681526020018060200180602001838103835285818151815260200191508051906020019080838360005b838110156107b1578181015183820152602001610799565b50505050905090810190601f1680156107de5780820380516001836020036101000a031916815260200191505b50838103825284518152845160209182019186019080838360005b838110156108115781810151838201526020016107f9565b50505050905090810190601f16801561083e5780820380516001836020036101000a031916815260200191505b509550505050505060405180910390a15050505050565b60036020526000908152604090205461ffff1681565b60046020526000908152604090205463ffffffff1681565b6001818154811061089057fe5b600091825260209182902060049091020180546001808301805460408051601f600260001996851615610100029690960190931694909404918201879004870284018701905280835263ffffffff909316955092939092919083018282801561093a5780601f1061090f5761010080835404028352916020019161093a565b820191906000526020600020905b81548152906001019060200180831161091d57829003601f168201915b50505060028085018054604080516020601f60001961010060018716150201909416959095049283018590048502810185019091528181529596959450909250908301828280156109cc5780601f106109a1576101008083540402835291602001916109cc565b820191906000526020600020905b8154815290600101906020018083116109af57829003601f168201915b5050505060038301805460408051602060026001851615610100026000190190941693909304601f8101849004840282018401909252818152949594935090830182828015610a5c5780601f10610a3157610100808354040283529160200191610a5c565b820191906000526020600020905b815481529060010190602001808311610a3f57829003601f168201915b5050505050905084565b610a6e610b18565b610abf576040805162461bcd60e51b815260206004820181905260248201527f4f776e61626c653a2063616c6c6572206973206e6f7420746865206f776e6572604482015290519081900360640190fd5b600080546040516001600160a01b03909116907f8be0079c531659141344cd1fd0a4f28419497f9722a3daafe3b4186f6b6457e0908390a3600080546001600160a01b0319169055565b6000546001600160a01b031690565b6000546001600160a01b0316331490565b600054600160a01b900463ffffffff1681565b610b44610b18565b610b95576040805162461bcd60e51b815260206004820181905260248201527f4f776e61626c653a2063616c6c6572206973206e6f7420746865206f776e6572604482015290519081900360640190fd5b610b9e81610cae565b50565b600082820163ffffffff8085169082161015610c04576040805162461bcd60e51b815260206004820152601b60248201527f536166654d6174683a206164646974696f6e206f766572666c6f770000000000604482015290519081900360640190fd5b9392505050565b6000610c0483836040518060400160405280601e81526020017f536166654d6174683a207375627472616374696f6e206f766572666c6f770000815250610d4e565b600082820161ffff8085169082161015610c04576040805162461bcd60e51b815260206004820152601b60248201527f536166654d6174683a206164646974696f6e206f766572666c6f770000000000604482015290519081900360640190fd5b6001600160a01b038116610cf35760405162461bcd60e51b8152600401808060200182810382526026815260200180610e866026913960400191505060405180910390fd5b600080546040516001600160a01b03808516939216917f8be0079c531659141344cd1fd0a4f28419497f9722a3daafe3b4186f6b6457e091a3600080546001600160a01b0319166001600160a01b0392909216919091179055565b60008363ffffffff168363ffffffff1611158290610dea5760405162461bcd60e51b81526004018080602001828103825283818151815260200191508051906020019080838360005b83811015610daf578181015183820152602001610d97565b50505050905090810190601f168015610ddc5780820380516001836020036101000a031916815260200191505b509250505060405180910390fd5b505050900390565b828054600181600116156101000203166002900490600052602060002090601f016020900481019282601f10610e3357805160ff1916838001178555610e60565b82800160010185558215610e60579182015b82811115610e60578251825591602001919060010190610e45565b50610e6c929150610e70565b5090565b5b80821115610e6c5760008155600101610e7156fe4f776e61626c653a206e6577206f776e657220697320746865207a65726f206164647265737353656e646572206e6f7420617574686f72697a65642e20497420616c72656164792068617320616e206163636f756e74a2646970667358221220f11596db6ad7626f386933e6209d5a1112aa1559fc42558aa9e78c5aab81679564736f6c63430007010033",
  "immutableReferences": {},
  "source": "// SPDX-License-Identifier: MIT\r\npragma solidity >=0.6.0 <0.8.0;\r\n\r\nimport \"./SafeMath.sol\";\r\nimport \"./Ownable.sol\";\r\n/**\r\n * @title Doctor\r\n * @dev Adding doctor operations\r\n*/\r\ncontract Doctor is Ownable {\r\n\r\n    using SafeMath16 for uint16;\r\n    using SafeMath32 for uint32;\r\n\r\n    // address public theOwner = msg.sender; //The address of deployer\r\n\r\n    uint32 public counterDoctor = 0;\r\n\r\n    struct DoctorInfo{\r\n        uint32 doctorId;\r\n        string firstName;\r\n        string lastName;\r\n        string hospitalAddress;\r\n    }\r\n\r\n    DoctorInfo[] public doctors; // record all doctors of the system\r\n\r\n    mapping (uint32 => address) eachDoctor;  // Corresponding doctorId to address\r\n    mapping (address => uint16) public doctorCount; // Corresponding address to 0 or 1 (help us to know if doctor has an account)\r\n    mapping (address => uint32) public ownerPatientCount; // Counts the number of patients added by each doctor\r\n    //mapping (uint32 => DoctorInfo) allDoctors; \r\n\r\n    event NewDoctor(uint32 doctorId, string firstName, string lastName);\r\n\r\n    // Modifier to check if the sender of any called method is a deployer (owner)\r\n    /*modifier onlyTheOwner() {\r\n        require(msg.sender == theOwner,'Sender not authorized.');\r\n        _;\r\n    }*/\r\n\r\n    // Modifier to check if the sender of any called method is a doctor\r\n    modifier isDoctor(address _address) {\r\n        require(doctorCount[_address] == 1,'Sender not authorized  ::: It should be a doctor');\r\n        _;\r\n    }\r\n\r\n    // Add doctor. Only the deployer of the contract can call this method\r\n    function addDoctor(string memory _firstName,\r\n        string memory _lastName,\r\n        string memory _hospitalAddress,\r\n        address addressDoctor) public onlyOwner {\r\n        require(doctorCount[addressDoctor] == 0,'Sender not authorized. It already has an account');\r\n        counterDoctor = counterDoctor.add(1);\r\n        uint32 idDoctor = counterDoctor.sub(1);\r\n        doctors.push(DoctorInfo(idDoctor, _firstName, _lastName, _hospitalAddress));\r\n        eachDoctor[idDoctor] = addressDoctor;\r\n        //allDoctors[idDoctor] = DoctorInfo(idDoctor, _firstName, _lastName, _hospitalAddress);\r\n        doctorCount[addressDoctor] = doctorCount[addressDoctor].add(1);\r\n        emit NewDoctor(idDoctor, _firstName, _lastName);\r\n    }\r\n\r\n    \r\n\r\n    /* We can add other method as:\r\n    - getAllDoctors\r\n    - getAnyDoctor by its doctorId or others parameters*/\r\n}",
  "sourcePath": "C:\\Ethereum\\healthcareBook\\contracts\\Doctor.sol",
  "compiler": {
    "name": "solc",
    "version": "0.7.1+commit.f4a555be.Emscripten.clang"
  },
  "schemaVersion": "3.2.5",
  "updatedAt": "2020-10-21T08:04:06.731Z",
  "devdoc": {
    "details": "Adding doctor operations",
    "kind": "dev",
    "methods": {
      "isOwner()": {
        "returns": {
          "_0": "true if `msg.sender` is the owner of the contract."
        }
      },
      "owner()": {
        "returns": {
          "_0": "the address of the owner."
        }
      },
      "renounceOwnership()": {
        "details": "Allows the current owner to relinquish control of the contract."
      },
      "transferOwnership(address)": {
        "details": "Allows the current owner to transfer control of the contract to a newOwner.",
        "params": {
          "newOwner": "The address to transfer ownership to."
        }
      }
    },
    "title": "Doctor",
    "version": 1
  },
  "userdoc": {
    "kind": "user",
    "methods": {
      "renounceOwnership()": {
        "notice": "Renouncing to ownership will leave the contract without an owner. It will not be possible to call the functions with the `onlyOwner` modifier anymore."
      }
    },
    "version": 1
  }
}