{
  "contractName": "Patient",
  "abi": [
    {
      "anonymous": false,
      "inputs": [
        {
          "indexed": false,
          "internalType": "uint32",
          "name": "doctorId",
          "type": "uint32"
        },
        {
          "indexed": false,
          "internalType": "string",
          "name": "firstName",
          "type": "string"
        },
        {
          "indexed": false,
          "internalType": "string",
          "name": "lastName",
          "type": "string"
        }
      ],
      "name": "NewDoctor",
      "type": "event"
    },
    {
      "anonymous": false,
      "inputs": [
        {
          "indexed": false,
          "internalType": "uint32",
          "name": "patientId",
          "type": "uint32"
        },
        {
          "indexed": false,
          "internalType": "string",
          "name": "firstName",
          "type": "string"
        },
        {
          "indexed": false,
          "internalType": "string",
          "name": "lastName",
          "type": "string"
        }
      ],
      "name": "NewPatient",
      "type": "event"
    },
    {
      "anonymous": false,
      "inputs": [
        {
          "indexed": true,
          "internalType": "address",
          "name": "previousOwner",
          "type": "address"
        },
        {
          "indexed": true,
          "internalType": "address",
          "name": "newOwner",
          "type": "address"
        }
      ],
      "name": "OwnershipTransferred",
      "type": "event"
    },
    {
      "constant": false,
      "inputs": [
        {
          "internalType": "string",
          "name": "_firstName",
          "type": "string"
        },
        {
          "internalType": "string",
          "name": "_lastName",
          "type": "string"
        },
        {
          "internalType": "string",
          "name": "_hospitalAddress",
          "type": "string"
        },
        {
          "internalType": "address",
          "name": "addressDoctor",
          "type": "address"
        }
      ],
      "name": "addDoctor",
      "outputs": [],
      "payable": false,
      "stateMutability": "nonpayable",
      "type": "function"
    },
    {
      "constant": true,
      "inputs": [
        {
          "internalType": "uint256",
          "name": "",
          "type": "uint256"
        }
      ],
      "name": "allAllergies",
      "outputs": [
        {
          "internalType": "uint256",
          "name": "allergytId",
          "type": "uint256"
        },
        {
          "internalType": "string",
          "name": "allergyName",
          "type": "string"
        },
        {
          "internalType": "string",
          "name": "observation",
          "type": "string"
        },
        {
          "internalType": "uint256",
          "name": "patientId",
          "type": "uint256"
        }
      ],
      "payable": false,
      "stateMutability": "view",
      "type": "function"
    },
    {
      "constant": true,
      "inputs": [
        {
          "internalType": "uint256",
          "name": "",
          "type": "uint256"
        }
      ],
      "name": "allSpecialtyMedicine",
      "outputs": [
        {
          "internalType": "uint256",
          "name": "documentId",
          "type": "uint256"
        },
        {
          "internalType": "string",
          "name": "medicationCode",
          "type": "string"
        },
        {
          "internalType": "string",
          "name": "medicationName",
          "type": "string"
        },
        {
          "internalType": "string",
          "name": "normalStartDate",
          "type": "string"
        },
        {
          "internalType": "string",
          "name": "normalEndDate",
          "type": "string"
        },
        {
          "internalType": "string",
          "name": "DosageUnit",
          "type": "string"
        },
        {
          "internalType": "uint256",
          "name": "DosageQuantity",
          "type": "uint256"
        },
        {
          "internalType": "string",
          "name": "prescriptionDate",
          "type": "string"
        },
        {
          "internalType": "string",
          "name": "observation",
          "type": "string"
        },
        {
          "internalType": "uint256",
          "name": "patientId",
          "type": "uint256"
        }
      ],
      "payable": false,
      "stateMutability": "view",
      "type": "function"
    },
    {
      "constant": true,
      "inputs": [],
      "name": "counterDoctor",
      "outputs": [
        {
          "internalType": "uint32",
          "name": "",
          "type": "uint32"
        }
      ],
      "payable": false,
      "stateMutability": "view",
      "type": "function"
    },
    {
      "constant": true,
      "inputs": [],
      "name": "counterPatient",
      "outputs": [
        {
          "internalType": "uint32",
          "name": "",
          "type": "uint32"
        }
      ],
      "payable": false,
      "stateMutability": "view",
      "type": "function"
    },
    {
      "constant": true,
      "inputs": [
        {
          "internalType": "address",
          "name": "",
          "type": "address"
        }
      ],
      "name": "doctorCount",
      "outputs": [
        {
          "internalType": "uint16",
          "name": "",
          "type": "uint16"
        }
      ],
      "payable": false,
      "stateMutability": "view",
      "type": "function"
    },
    {
      "constant": true,
      "inputs": [
        {
          "internalType": "uint256",
          "name": "",
          "type": "uint256"
        }
      ],
      "name": "doctors",
      "outputs": [
        {
          "internalType": "uint32",
          "name": "doctorId",
          "type": "uint32"
        },
        {
          "internalType": "string",
          "name": "firstName",
          "type": "string"
        },
        {
          "internalType": "string",
          "name": "lastName",
          "type": "string"
        },
        {
          "internalType": "string",
          "name": "hospitalAddress",
          "type": "string"
        }
      ],
      "payable": false,
      "stateMutability": "view",
      "type": "function"
    },
    {
      "constant": true,
      "inputs": [],
      "name": "isOwner",
      "outputs": [
        {
          "internalType": "bool",
          "name": "",
          "type": "bool"
        }
      ],
      "payable": false,
      "stateMutability": "view",
      "type": "function"
    },
    {
      "constant": true,
      "inputs": [
        {
          "internalType": "uint256",
          "name": "",
          "type": "uint256"
        }
      ],
      "name": "orderExamination",
      "outputs": [
        {
          "internalType": "uint256",
          "name": "docExaminationId",
          "type": "uint256"
        },
        {
          "internalType": "uint256",
          "name": "patientId",
          "type": "uint256"
        },
        {
          "internalType": "string",
          "name": "codeExaminationName",
          "type": "string"
        },
        {
          "internalType": "string",
          "name": "examinationName",
          "type": "string"
        },
        {
          "internalType": "string",
          "name": "orderedDate",
          "type": "string"
        }
      ],
      "payable": false,
      "stateMutability": "view",
      "type": "function"
    },
    {
      "constant": true,
      "inputs": [],
      "name": "owner",
      "outputs": [
        {
          "internalType": "address payable",
          "name": "",
          "type": "address"
        }
      ],
      "payable": false,
      "stateMutability": "view",
      "type": "function"
    },
    {
      "constant": true,
      "inputs": [
        {
          "internalType": "address",
          "name": "",
          "type": "address"
        }
      ],
      "name": "ownerPatientCount",
      "outputs": [
        {
          "internalType": "uint32",
          "name": "",
          "type": "uint32"
        }
      ],
      "payable": false,
      "stateMutability": "view",
      "type": "function"
    },
    {
      "constant": true,
      "inputs": [
        {
          "internalType": "uint256",
          "name": "",
          "type": "uint256"
        }
      ],
      "name": "patients",
      "outputs": [
        {
          "internalType": "uint32",
          "name": "patientId",
          "type": "uint32"
        },
        {
          "internalType": "string",
          "name": "firstName",
          "type": "string"
        },
        {
          "internalType": "string",
          "name": "lastName",
          "type": "string"
        },
        {
          "internalType": "string",
          "name": "gender",
          "type": "string"
        },
        {
          "internalType": "string",
          "name": "addressOfPatient",
          "type": "string"
        }
      ],
      "payable": false,
      "stateMutability": "view",
      "type": "function"
    },
    {
      "constant": false,
      "inputs": [],
      "name": "renounceOwnership",
      "outputs": [],
      "payable": false,
      "stateMutability": "nonpayable",
      "type": "function"
    },
    {
      "constant": false,
      "inputs": [
        {
          "internalType": "address payable",
          "name": "newOwner",
          "type": "address"
        }
      ],
      "name": "transferOwnership",
      "outputs": [],
      "payable": false,
      "stateMutability": "nonpayable",
      "type": "function"
    },
    {
      "constant": false,
      "inputs": [
        {
          "internalType": "string",
          "name": "_firstName",
          "type": "string"
        },
        {
          "internalType": "string",
          "name": "_lastName",
          "type": "string"
        },
        {
          "internalType": "string",
          "name": "_gender",
          "type": "string"
        },
        {
          "internalType": "string",
          "name": "_addressOfPatient",
          "type": "string"
        }
      ],
      "name": "addPatient",
      "outputs": [],
      "payable": false,
      "stateMutability": "nonpayable",
      "type": "function"
    },
    {
      "constant": true,
      "inputs": [],
      "name": "getAllPatient",
      "outputs": [
        {
          "components": [
            {
              "internalType": "uint32",
              "name": "patientId",
              "type": "uint32"
            },
            {
              "internalType": "string",
              "name": "firstName",
              "type": "string"
            },
            {
              "internalType": "string",
              "name": "lastName",
              "type": "string"
            },
            {
              "internalType": "string",
              "name": "gender",
              "type": "string"
            },
            {
              "internalType": "string",
              "name": "addressOfPatient",
              "type": "string"
            }
          ],
          "internalType": "struct Patient.PatientInfo[]",
          "name": "",
          "type": "tuple[]"
        }
      ],
      "payable": false,
      "stateMutability": "view",
      "type": "function"
    },
    {
      "constant": false,
      "inputs": [
        {
          "internalType": "string",
          "name": "_bloodGroup",
          "type": "string"
        },
        {
          "internalType": "string",
          "name": "_rhesus",
          "type": "string"
        },
        {
          "internalType": "string",
          "name": "_electrophoresis",
          "type": "string"
        },
        {
          "internalType": "uint256",
          "name": "_patientId",
          "type": "uint256"
        }
      ],
      "name": "setNonVariableExamination",
      "outputs": [],
      "payable": false,
      "stateMutability": "nonpayable",
      "type": "function"
    },
    {
      "constant": true,
      "inputs": [
        {
          "internalType": "uint256",
          "name": "_patientId",
          "type": "uint256"
        }
      ],
      "name": "getNonVariableExamination",
      "outputs": [
        {
          "components": [
            {
              "internalType": "string",
              "name": "bloodGroup",
              "type": "string"
            },
            {
              "internalType": "string",
              "name": "rhesus",
              "type": "string"
            },
            {
              "internalType": "string",
              "name": "electrophoresis",
              "type": "string"
            },
            {
              "internalType": "uint256",
              "name": "patientId",
              "type": "uint256"
            }
          ],
          "internalType": "struct NonVariableExamination.NonVariableExaminationInfo",
          "name": "",
          "type": "tuple"
        }
      ],
      "payable": false,
      "stateMutability": "view",
      "type": "function"
    },
    {
      "constant": false,
      "inputs": [
        {
          "internalType": "uint256",
          "name": "_documentId",
          "type": "uint256"
        },
        {
          "internalType": "string",
          "name": "_medicationCode",
          "type": "string"
        },
        {
          "internalType": "string",
          "name": "_medicationName",
          "type": "string"
        },
        {
          "internalType": "string",
          "name": "_normalStartDate",
          "type": "string"
        },
        {
          "internalType": "string",
          "name": "_normalEndDate",
          "type": "string"
        },
        {
          "internalType": "string",
          "name": "_DosageUnit",
          "type": "string"
        },
        {
          "internalType": "uint256",
          "name": "_DosageQuantity",
          "type": "uint256"
        },
        {
          "internalType": "string",
          "name": "_prescriptionDate",
          "type": "string"
        },
        {
          "internalType": "string",
          "name": "_observation",
          "type": "string"
        },
        {
          "internalType": "uint256",
          "name": "_patientId",
          "type": "uint256"
        }
      ],
      "name": "prescribeSpecialtyMedicine",
      "outputs": [],
      "payable": false,
      "stateMutability": "nonpayable",
      "type": "function"
    },
    {
      "constant": false,
      "inputs": [
        {
          "internalType": "uint256",
          "name": "_patientId",
          "type": "uint256"
        },
        {
          "internalType": "uint256",
          "name": "_documentId",
          "type": "uint256"
        },
        {
          "internalType": "string",
          "name": "_medicationCode",
          "type": "string"
        },
        {
          "internalType": "string",
          "name": "_observation",
          "type": "string"
        }
      ],
      "name": "setObservationAfterPrescription",
      "outputs": [
        {
          "internalType": "bool",
          "name": "",
          "type": "bool"
        }
      ],
      "payable": false,
      "stateMutability": "nonpayable",
      "type": "function"
    },
    {
      "constant": true,
      "inputs": [
        {
          "internalType": "uint256",
          "name": "_patientId",
          "type": "uint256"
        }
      ],
      "name": "getAllPrescribeMedicine",
      "outputs": [
        {
          "components": [
            {
              "internalType": "uint256",
              "name": "documentId",
              "type": "uint256"
            },
            {
              "internalType": "string",
              "name": "medicationCode",
              "type": "string"
            },
            {
              "internalType": "string",
              "name": "medicationName",
              "type": "string"
            },
            {
              "internalType": "string",
              "name": "normalStartDate",
              "type": "string"
            },
            {
              "internalType": "string",
              "name": "normalEndDate",
              "type": "string"
            },
            {
              "internalType": "string",
              "name": "DosageUnit",
              "type": "string"
            },
            {
              "internalType": "uint256",
              "name": "DosageQuantity",
              "type": "uint256"
            },
            {
              "internalType": "string",
              "name": "prescriptionDate",
              "type": "string"
            },
            {
              "internalType": "string",
              "name": "observation",
              "type": "string"
            },
            {
              "internalType": "uint256",
              "name": "patientId",
              "type": "uint256"
            }
          ],
          "internalType": "struct SpecialtyMedicine.SpecialtyMedicineInfo[]",
          "name": "",
          "type": "tuple[]"
        }
      ],
      "payable": false,
      "stateMutability": "view",
      "type": "function"
    },
    {
      "constant": false,
      "inputs": [
        {
          "internalType": "uint256",
          "name": "_allergytId",
          "type": "uint256"
        },
        {
          "internalType": "string",
          "name": "_allergyName",
          "type": "string"
        },
        {
          "internalType": "string",
          "name": "_observation",
          "type": "string"
        },
        {
          "internalType": "uint256",
          "name": "_patientId",
          "type": "uint256"
        }
      ],
      "name": "addAllergy",
      "outputs": [],
      "payable": false,
      "stateMutability": "nonpayable",
      "type": "function"
    },
    {
      "constant": true,
      "inputs": [
        {
          "internalType": "uint256",
          "name": "_patientId",
          "type": "uint256"
        }
      ],
      "name": "getAllergies",
      "outputs": [
        {
          "components": [
            {
              "internalType": "uint256",
              "name": "allergytId",
              "type": "uint256"
            },
            {
              "internalType": "string",
              "name": "allergyName",
              "type": "string"
            },
            {
              "internalType": "string",
              "name": "observation",
              "type": "string"
            },
            {
              "internalType": "uint256",
              "name": "patientId",
              "type": "uint256"
            }
          ],
          "internalType": "struct Allergy.AllergyInfo[]",
          "name": "",
          "type": "tuple[]"
        }
      ],
      "payable": false,
      "stateMutability": "view",
      "type": "function"
    },
    {
      "constant": false,
      "inputs": [
        {
          "internalType": "uint256",
          "name": "_patientId",
          "type": "uint256"
        },
        {
          "internalType": "uint256",
          "name": "_docExaminationId",
          "type": "uint256"
        },
        {
          "internalType": "string",
          "name": "_codeExaminationName",
          "type": "string"
        },
        {
          "internalType": "string",
          "name": "_examinationName",
          "type": "string"
        },
        {
          "internalType": "string",
          "name": "_orderedDate",
          "type": "string"
        }
      ],
      "name": "orderAnExamination",
      "outputs": [],
      "payable": false,
      "stateMutability": "nonpayable",
      "type": "function"
    },
    {
      "constant": true,
      "inputs": [
        {
          "internalType": "uint256",
          "name": "_patientId",
          "type": "uint256"
        }
      ],
      "name": "allExaminationOrderToPatient",
      "outputs": [
        {
          "components": [
            {
              "internalType": "uint256",
              "name": "docExaminationId",
              "type": "uint256"
            },
            {
              "internalType": "uint256",
              "name": "patientId",
              "type": "uint256"
            },
            {
              "internalType": "string",
              "name": "codeExaminationName",
              "type": "string"
            },
            {
              "internalType": "string",
              "name": "examinationName",
              "type": "string"
            },
            {
              "internalType": "string",
              "name": "orderedDate",
              "type": "string"
            }
          ],
          "internalType": "struct Examination.ExaminationInfo[]",
          "name": "",
          "type": "tuple[]"
        }
      ],
      "payable": false,
      "stateMutability": "view",
      "type": "function"
    },
    {
      "constant": false,
      "inputs": [
        {
          "internalType": "uint256",
          "name": "_docResultId",
          "type": "uint256"
        },
        {
          "internalType": "uint256",
          "name": "_docExaminationId",
          "type": "uint256"
        },
        {
          "internalType": "string",
          "name": "_resultCode",
          "type": "string"
        },
        {
          "internalType": "string",
          "name": "_codeResultName",
          "type": "string"
        },
        {
          "internalType": "string",
          "name": "_observationDate",
          "type": "string"
        }
      ],
      "name": "addResultOfOrderExamination",
      "outputs": [],
      "payable": false,
      "stateMutability": "nonpayable",
      "type": "function"
    },
    {
      "constant": true,
      "inputs": [
        {
          "internalType": "uint256",
          "name": "_docExaminationId",
          "type": "uint256"
        }
      ],
      "name": "getResultOfOrderExamination",
      "outputs": [
        {
          "components": [
            {
              "internalType": "uint256",
              "name": "docResultId",
              "type": "uint256"
            },
            {
              "internalType": "uint256",
              "name": "docExaminationId",
              "type": "uint256"
            },
            {
              "internalType": "string",
              "name": "resultCode",
              "type": "string"
            },
            {
              "internalType": "string",
              "name": "codeResultName",
              "type": "string"
            },
            {
              "internalType": "string",
              "name": "observationDate",
              "type": "string"
            }
          ],
          "internalType": "struct ResultExamination.ResultExaminationInfo",
          "name": "",
          "type": "tuple"
        }
      ],
      "payable": false,
      "stateMutability": "view",
      "type": "function"
    },
    {
      "constant": false,
      "inputs": [
        {
          "internalType": "uint256",
          "name": "_docResultId",
          "type": "uint256"
        },
        {
          "internalType": "string",
          "name": "_componentName",
          "type": "string"
        },
        {
          "internalType": "string",
          "name": "_labName",
          "type": "string"
        },
        {
          "internalType": "string",
          "name": "_resultValue",
          "type": "string"
        },
        {
          "internalType": "string",
          "name": "_resultObservation",
          "type": "string"
        }
      ],
      "name": "addResultDetailExamination",
      "outputs": [],
      "payable": false,
      "stateMutability": "nonpayable",
      "type": "function"
    },
    {
      "constant": true,
      "inputs": [
        {
          "internalType": "uint256",
          "name": "_docResultId",
          "type": "uint256"
        }
      ],
      "name": "getResultDetailExamination",
      "outputs": [
        {
          "components": [
            {
              "internalType": "uint256",
              "name": "docResultId",
              "type": "uint256"
            },
            {
              "internalType": "string",
              "name": "componentName",
              "type": "string"
            },
            {
              "internalType": "string",
              "name": "labName",
              "type": "string"
            },
            {
              "internalType": "string",
              "name": "resultValue",
              "type": "string"
            },
            {
              "internalType": "string",
              "name": "resultObservation",
              "type": "string"
            }
          ],
          "internalType": "struct ResultExaminationDetail.ResultExaminationDetailInfo",
          "name": "",
          "type": "tuple"
        }
      ],
      "payable": false,
      "stateMutability": "view",
      "type": "function"
    }
  ],
  "bytecode": "0x608060405260008060146101000a81548163ffffffff021916908363ffffffff1602179055506000600760006101000a81548163ffffffff021916908363ffffffff160217905550336000806101000a81548173ffffffffffffffffffffffffffffffffffffffff021916908373ffffffffffffffffffffffffffffffffffffffff1602179055506000809054906101000a900473ffffffffffffffffffffffffffffffffffffffff1673ffffffffffffffffffffffffffffffffffffffff16600073ffffffffffffffffffffffffffffffffffffffff167f8be0079c531659141344cd1fd0a4f28419497f9722a3daafe3b4186f6b6457e060405160405180910390a3615c72806101126000396000f3fe608060405234801561001057600080fd5b50600436106101ce5760003560e01c806393119a8311610104578063c73ee74b116100a2578063f2fde38b11610071578063f2fde38b146105a2578063fa4bf015146105be578063fea6c691146105ee578063ff8e704f1461060a576101ce565b8063c73ee74b146104d6578063d1b304ec14610509578063d878e8f814610539578063da94497b14610569576101ce565b80639c781b56116100de5780639c781b561461044e578063a135f5261461046c578063b598e39414610488578063b8c6b1cf146104a6576101ce565b806393119a83146103ba57806397f6c84c146103ee5780639852f3771461041e576101ce565b80636c5fb739116101715780637354f8d81161014b5780637354f8d8146103305780638c8350fd146103605780638da5cb5b1461037e5780638f32d59b1461039c576101ce565b80636c5fb739146102d75780636efb1b84146102f3578063715018a614610326576101ce565b80631b4ea939116101ad5780631b4ea939146102535780632da40f281461026f5780634c8188781461029f57806353b73144146102bb576101ce565b806230e6d3146101d35780630370f592146101ef578063099ddfbd14610223575b600080fd5b6101ed60048036036101e8919081019061438e565b610626565b005b610209600480360361020491908101906145a7565b6109b0565b60405161021a9594939291906157f9565b60405180910390f35b61023d6004803603610238919081019061433c565b610bbb565b60405161024a91906156be565b60405180910390f35b61026d600480360361026891908101906144fc565b610bdc565b005b6102896004803603610284919081019061433c565b610dde565b6040516102969190615861565b60405180910390f35b6102b960048036036102b4919081019061482a565b610e01565b005b6102d560048036036102d09190810190614950565b610f7a565b005b6102f160048036036102ec91908101906145d0565b6110bf565b005b61030d600480360361030891908101906145a7565b611217565b60405161031d94939291906158c1565b60405180910390f35b61032e61142c565b005b61034a600480360361034591908101906145a7565b611532565b604051610357919061569c565b60405180910390f35b610368611759565b6040516103759190615517565b60405180910390f35b610386611a66565b60405161039391906154b8565b60405180910390f35b6103a4611a8f565b6040516103b1919061555b565b60405180910390f35b6103d460048036036103cf91908101906145a7565b611ae6565b6040516103e595949392919061591b565b60405180910390f35b610408600480360361040391908101906145a7565b611d99565b60405161041591906154d3565b60405180910390f35b610438600480360361043391908101906145a7565b611fee565b604051610445919061567a565b60405180910390f35b6104566122ad565b6040516104639190615861565b60405180910390f35b610486600480360361048191908101906146a7565b6122c3565b005b610490612504565b60405161049d9190615861565b60405180910390f35b6104c060048036036104bb91908101906145a7565b61251a565b6040516104cd91906154f5565b60405180910390f35b6104f060048036036104eb91908101906145a7565b612811565b60405161050094939291906157a6565b60405180910390f35b610523600480360361051e91908101906148bd565b61297e565b604051610530919061555b565b60405180910390f35b610553600480360361054e91908101906145a7565b612b95565b6040516105609190615658565b60405180910390f35b610583600480360361057e91908101906145a7565b612db2565b6040516105999a999897969594939291906156d9565b60405180910390f35b6105bc60048036036105b79190810190614365565b61323b565b005b6105d860048036036105d391908101906145a7565b61328e565b6040516105e59190615539565b60405180910390f35b61060860048036036106039190810190614950565b613818565b005b610624600480360361061f9190810190614439565b6139b5565b005b61062e611a8f565b61066d576040517f08c379a000000000000000000000000000000000000000000000000000000000815260040161066490615638565b60405180910390fd5b6000600360008373ffffffffffffffffffffffffffffffffffffffff1673ffffffffffffffffffffffffffffffffffffffff16815260200190815260200160002060009054906101000a900461ffff1661ffff1614610701576040517f08c379a00000000000000000000000000000000000000000000000000000000081526004016106f890615618565b60405180910390fd5b61072d6001600060149054906101000a900463ffffffff1663ffffffff16613ac390919063ffffffff16565b600060146101000a81548163ffffffff021916908363ffffffff160217905550600061077b6001600060149054906101000a900463ffffffff1663ffffffff16613b2490919063ffffffff16565b9050600160405180608001604052808363ffffffff168152602001878152602001868152602001858152509080600181540180825580915050906001820390600052602060002090600402016000909192909190915060008201518160000160006101000a81548163ffffffff021916908363ffffffff1602179055506020820151816001019080519060200190610814929190614054565b506040820151816002019080519060200190610831929190614054565b50606082015181600301908051906020019061084e929190614054565b5050505081600260008363ffffffff1663ffffffff16815260200190815260200160002060006101000a81548173ffffffffffffffffffffffffffffffffffffffff021916908373ffffffffffffffffffffffffffffffffffffffff1602179055506109156001600360008573ffffffffffffffffffffffffffffffffffffffff1673ffffffffffffffffffffffffffffffffffffffff16815260200190815260200160002060009054906101000a900461ffff1661ffff16613b6e90919063ffffffff16565b600360008473ffffffffffffffffffffffffffffffffffffffff1673ffffffffffffffffffffffffffffffffffffffff16815260200190815260200160002060006101000a81548161ffff021916908361ffff1602179055507ff7e5f435fdefaa9ef5ed1e9b2e2bf9b6efb0d3dafa1c5b157f35b13522608dfc8186866040516109a19392919061587c565b60405180910390a15050505050565b600981815481106109bd57fe5b9060005260206000209060050201600091509050806000015490806001015490806002018054600181600116156101000203166002900480601f016020809104026020016040519081016040528092919081815260200182805460018160011615610100020316600290048015610a755780601f10610a4a57610100808354040283529160200191610a75565b820191906000526020600020905b815481529060010190602001808311610a5857829003601f168201915b505050505090806003018054600181600116156101000203166002900480601f016020809104026020016040519081016040528092919081815260200182805460018160011615610100020316600290048015610b135780601f10610ae857610100808354040283529160200191610b13565b820191906000526020600020905b815481529060010190602001808311610af657829003601f168201915b505050505090806004018054600181600116156101000203166002900480601f016020809104026020016040519081016040528092919081815260200182805460018160011615610100020316600290048015610bb15780601f10610b8657610100808354040283529160200191610bb1565b820191906000526020600020905b815481529060010190602001808311610b9457829003601f168201915b5050505050905085565b60036020528060005260406000206000915054906101000a900461ffff1681565b336001600360008373ffffffffffffffffffffffffffffffffffffffff1673ffffffffffffffffffffffffffffffffffffffff16815260200190815260200160002060009054906101000a900461ffff1661ffff1614610c71576040517f08c379a0000000000000000000000000000000000000000000000000000000008152600401610c6890615598565b60405180910390fd5b60006011600084815260200190815260200160002060009054906101000a900461ffff1661ffff1614610cd9576040517f08c379a0000000000000000000000000000000000000000000000000000000008152600401610cd0906155d8565b60405180910390fd5b604051806080016040528086815260200185815260200184815260200183815250600d60008481526020019081526020016000206000820151816000019080519060200190610d29929190614054565b506020820151816001019080519060200190610d46929190614054565b506040820151816002019080519060200190610d63929190614054565b5060608201518160030155905050610daa60016011600085815260200190815260200160002060009054906101000a900461ffff1661ffff16613b6e90919063ffffffff16565b6011600084815260200190815260200160002060006101000a81548161ffff021916908361ffff1602179055505050505050565b60046020528060005260406000206000915054906101000a900463ffffffff1681565b336001600360008373ffffffffffffffffffffffffffffffffffffffff1673ffffffffffffffffffffffffffffffffffffffff16815260200190815260200160002060009054906101000a900461ffff1661ffff1614610e96576040517f08c379a0000000000000000000000000000000000000000000000000000000008152600401610e8d90615598565b60405180910390fd5b600b60405180608001604052808781526020018681526020018581526020018481525090806001815401808255809150509060018203906000526020600020906004020160009091929091909150600082015181600001556020820151816001019080519060200190610f0a929190614054565b506040820151816002019080519060200190610f27929190614054565b5060608201518160030155505050610f5c60016010600085815260200190815260200160002054613bcb90919063ffffffff16565b60106000848152602001908152602001600020819055505050505050565b336001600360008373ffffffffffffffffffffffffffffffffffffffff1673ffffffffffffffffffffffffffffffffffffffff16815260200190815260200160002060009054906101000a900461ffff1661ffff161461100f576040517f08c379a000000000000000000000000000000000000000000000000000000000815260040161100690615598565b60405180910390fd5b6040518060a00160405280878152602001868152602001858152602001848152602001838152506006600087815260200190815260200160002060008201518160000155602082015181600101556040820151816002019080519060200190611079929190614054565b506060820151816003019080519060200190611096929190614054565b5060808201518160040190805190602001906110b3929190614054565b50905050505050505050565b336001600360008373ffffffffffffffffffffffffffffffffffffffff1673ffffffffffffffffffffffffffffffffffffffff16815260200190815260200160002060009054906101000a900461ffff1661ffff1614611154576040517f08c379a000000000000000000000000000000000000000000000000000000000815260040161114b90615598565b60405180910390fd5b6040518060a0016040528087815260200186815260200185815260200184815260200183815250600560008881526020019081526020016000206000820151816000015560208201518160010190805190602001906111b4929190614054565b5060408201518160020190805190602001906111d1929190614054565b5060608201518160030190805190602001906111ee929190614054565b50608082015181600401908051906020019061120b929190614054565b50905050505050505050565b6001818154811061122457fe5b90600052602060002090600402016000915090508060000160009054906101000a900463ffffffff1690806001018054600181600116156101000203166002900480601f0160208091040260200160405190810160405280929190818152602001828054600181600116156101000203166002900480156112e65780601f106112bb576101008083540402835291602001916112e6565b820191906000526020600020905b8154815290600101906020018083116112c957829003601f168201915b505050505090806002018054600181600116156101000203166002900480601f0160208091040260200160405190810160405280929190818152602001828054600181600116156101000203166002900480156113845780601f1061135957610100808354040283529160200191611384565b820191906000526020600020905b81548152906001019060200180831161136757829003601f168201915b505050505090806003018054600181600116156101000203166002900480601f0160208091040260200160405190810160405280929190818152602001828054600181600116156101000203166002900480156114225780601f106113f757610100808354040283529160200191611422565b820191906000526020600020905b81548152906001019060200180831161140557829003601f168201915b5050505050905084565b611434611a8f565b611473576040517f08c379a000000000000000000000000000000000000000000000000000000000815260040161146a90615638565b60405180910390fd5b600073ffffffffffffffffffffffffffffffffffffffff166000809054906101000a900473ffffffffffffffffffffffffffffffffffffffff1673ffffffffffffffffffffffffffffffffffffffff167f8be0079c531659141344cd1fd0a4f28419497f9722a3daafe3b4186f6b6457e060405160405180910390a360008060006101000a81548173ffffffffffffffffffffffffffffffffffffffff021916908373ffffffffffffffffffffffffffffffffffffffff160217905550565b61153a6140d4565b600660008381526020019081526020016000206040518060a00160405290816000820154815260200160018201548152602001600282018054600181600116156101000203166002900480601f0160208091040260200160405190810160405280929190818152602001828054600181600116156101000203166002900480156116055780601f106115da57610100808354040283529160200191611605565b820191906000526020600020905b8154815290600101906020018083116115e857829003601f168201915b50505050508152602001600382018054600181600116156101000203166002900480601f0160208091040260200160405190810160405280929190818152602001828054600181600116156101000203166002900480156116a75780601f1061167c576101008083540402835291602001916116a7565b820191906000526020600020905b81548152906001019060200180831161168a57829003601f168201915b50505050508152602001600482018054600181600116156101000203166002900480601f0160208091040260200160405190810160405280929190818152602001828054600181600116156101000203166002900480156117495780601f1061171e57610100808354040283529160200191611749565b820191906000526020600020905b81548152906001019060200180831161172c57829003601f168201915b5050505050815250509050919050565b60606008805480602002602001604051908101604052809291908181526020016000905b82821015611a5d57838290600052602060002090600502016040518060a00160405290816000820160009054906101000a900463ffffffff1663ffffffff1663ffffffff168152602001600182018054600181600116156101000203166002900480601f01602080910402602001604051908101604052809291908181526020018280546001816001161561010002031660029004801561185f5780601f106118345761010080835404028352916020019161185f565b820191906000526020600020905b81548152906001019060200180831161184257829003601f168201915b50505050508152602001600282018054600181600116156101000203166002900480601f0160208091040260200160405190810160405280929190818152602001828054600181600116156101000203166002900480156119015780601f106118d657610100808354040283529160200191611901565b820191906000526020600020905b8154815290600101906020018083116118e457829003601f168201915b50505050508152602001600382018054600181600116156101000203166002900480601f0160208091040260200160405190810160405280929190818152602001828054600181600116156101000203166002900480156119a35780601f10611978576101008083540402835291602001916119a3565b820191906000526020600020905b81548152906001019060200180831161198657829003601f168201915b50505050508152602001600482018054600181600116156101000203166002900480601f016020809104026020016040519081016040528092919081815260200182805460018160011615610100020316600290048015611a455780601f10611a1a57610100808354040283529160200191611a45565b820191906000526020600020905b815481529060010190602001808311611a2857829003601f168201915b5050505050815250508152602001906001019061177d565b50505050905090565b60008060009054906101000a900473ffffffffffffffffffffffffffffffffffffffff16905090565b60008060009054906101000a900473ffffffffffffffffffffffffffffffffffffffff1673ffffffffffffffffffffffffffffffffffffffff163373ffffffffffffffffffffffffffffffffffffffff1614905090565b60088181548110611af357fe5b90600052602060002090600502016000915090508060000160009054906101000a900463ffffffff1690806001018054600181600116156101000203166002900480601f016020809104026020016040519081016040528092919081815260200182805460018160011615610100020316600290048015611bb55780601f10611b8a57610100808354040283529160200191611bb5565b820191906000526020600020905b815481529060010190602001808311611b9857829003601f168201915b505050505090806002018054600181600116156101000203166002900480601f016020809104026020016040519081016040528092919081815260200182805460018160011615610100020316600290048015611c535780601f10611c2857610100808354040283529160200191611c53565b820191906000526020600020905b815481529060010190602001808311611c3657829003601f168201915b505050505090806003018054600181600116156101000203166002900480601f016020809104026020016040519081016040528092919081815260200182805460018160011615610100020316600290048015611cf15780601f10611cc657610100808354040283529160200191611cf1565b820191906000526020600020905b815481529060010190602001808311611cd457829003601f168201915b505050505090806004018054600181600116156101000203166002900480601f016020809104026020016040519081016040528092919081815260200182805460018160011615610100020316600290048015611d8f5780601f10611d6457610100808354040283529160200191611d8f565b820191906000526020600020905b815481529060010190602001808311611d7257829003601f168201915b5050505050905085565b6060806010600084815260200190815260200160002054604051908082528060200260200182016040528015611de957816020015b611dd6614103565b815260200190600190039081611dce5790505b509050600080905060008090505b600b80549050811015611fe35784600b8281548110611e1257fe5b9060005260206000209060040201600301541415611fd657600b8181548110611e3757fe5b906000526020600020906004020160405180608001604052908160008201548152602001600182018054600181600116156101000203166002900480601f016020809104026020016040519081016040528092919081815260200182805460018160011615610100020316600290048015611ef35780601f10611ec857610100808354040283529160200191611ef3565b820191906000526020600020905b815481529060010190602001808311611ed657829003601f168201915b50505050508152602001600282018054600181600116156101000203166002900480601f016020809104026020016040519081016040528092919081815260200182805460018160011615610100020316600290048015611f955780601f10611f6a57610100808354040283529160200191611f95565b820191906000526020600020905b815481529060010190602001808311611f7857829003601f168201915b50505050508152602001600382015481525050838381518110611fb457fe5b6020026020010181905250611fd3600183613bcb90919063ffffffff16565b91505b8080600101915050611df7565b508192505050919050565b611ff661412b565b600560008381526020019081526020016000206040518060a001604052908160008201548152602001600182018054600181600116156101000203166002900480601f0160208091040260200160405190810160405280929190818152602001828054600181600116156101000203166002900480156120b75780601f1061208c576101008083540402835291602001916120b7565b820191906000526020600020905b81548152906001019060200180831161209a57829003601f168201915b50505050508152602001600282018054600181600116156101000203166002900480601f0160208091040260200160405190810160405280929190818152602001828054600181600116156101000203166002900480156121595780601f1061212e57610100808354040283529160200191612159565b820191906000526020600020905b81548152906001019060200180831161213c57829003601f168201915b50505050508152602001600382018054600181600116156101000203166002900480601f0160208091040260200160405190810160405280929190818152602001828054600181600116156101000203166002900480156121fb5780601f106121d0576101008083540402835291602001916121fb565b820191906000526020600020905b8154815290600101906020018083116121de57829003601f168201915b50505050508152602001600482018054600181600116156101000203166002900480601f01602080910402602001604051908101604052809291908181526020018280546001816001161561010002031660029004801561229d5780601f106122725761010080835404028352916020019161229d565b820191906000526020600020905b81548152906001019060200180831161228057829003601f168201915b5050505050815250509050919050565b600760009054906101000a900463ffffffff1681565b336001600360008373ffffffffffffffffffffffffffffffffffffffff1673ffffffffffffffffffffffffffffffffffffffff16815260200190815260200160002060009054906101000a900461ffff1661ffff1614612358576040517f08c379a000000000000000000000000000000000000000000000000000000000815260040161234f90615598565b60405180910390fd5b600a6040518061014001604052808d81526020018c81526020018b81526020018a8152602001898152602001888152602001878152602001868152602001858152602001848152509080600181540180825580915050906001820390600052602060002090600a0201600090919290919091506000820151816000015560208201518160010190805190602001906123f1929190614054565b50604082015181600201908051906020019061240e929190614054565b50606082015181600301908051906020019061242b929190614054565b506080820151816004019080519060200190612448929190614054565b5060a0820151816005019080519060200190612465929190614054565b5060c0820151816006015560e082015181600701908051906020019061248c929190614054565b506101008201518160080190805190602001906124aa929190614054565b5061012082015181600901555050506124e06001600f600085815260200190815260200160002054613bcb90919063ffffffff16565b600f6000848152602001908152602001600020819055505050505050505050505050565b600060149054906101000a900463ffffffff1681565b606080600e60008481526020019081526020016000205460405190808252806020026020018201604052801561256a57816020015b61255761415a565b81526020019060019003908161254f5790505b509050600080905060008090505b60098054905081101561280657846009828154811061259357fe5b90600052602060002090600502016001015414156127f957600981815481106125b857fe5b90600052602060002090600502016040518060a00160405290816000820154815260200160018201548152602001600282018054600181600116156101000203166002900480601f01602080910402602001604051908101604052809291908181526020018280546001816001161561010002031660029004801561267e5780601f106126535761010080835404028352916020019161267e565b820191906000526020600020905b81548152906001019060200180831161266157829003601f168201915b50505050508152602001600382018054600181600116156101000203166002900480601f0160208091040260200160405190810160405280929190818152602001828054600181600116156101000203166002900480156127205780601f106126f557610100808354040283529160200191612720565b820191906000526020600020905b81548152906001019060200180831161270357829003601f168201915b50505050508152602001600482018054600181600116156101000203166002900480601f0160208091040260200160405190810160405280929190818152602001828054600181600116156101000203166002900480156127c25780601f10612797576101008083540402835291602001916127c2565b820191906000526020600020905b8154815290600101906020018083116127a557829003601f168201915b5050505050815250508383815181106127d757fe5b60200260200101819052506127f6600183613bcb90919063ffffffff16565b91505b8080600101915050612578565b508192505050919050565b600b818154811061281e57fe5b9060005260206000209060040201600091509050806000015490806001018054600181600116156101000203166002900480601f0160208091040260200160405190810160405280929190818152602001828054600181600116156101000203166002900480156128d05780601f106128a5576101008083540402835291602001916128d0565b820191906000526020600020905b8154815290600101906020018083116128b357829003601f168201915b505050505090806002018054600181600116156101000203166002900480601f01602080910402602001604051908101604052809291908181526020018280546001816001161561010002031660029004801561296e5780601f106129435761010080835404028352916020019161296e565b820191906000526020600020905b81548152906001019060200180831161295157829003601f168201915b5050505050908060030154905084565b6000336001600360008373ffffffffffffffffffffffffffffffffffffffff1673ffffffffffffffffffffffffffffffffffffffff16815260200190815260200160002060009054906101000a900461ffff1661ffff1614612a15576040517f08c379a0000000000000000000000000000000000000000000000000000000008152600401612a0c90615598565b60405180910390fd5b60008090505b600a80549050811015612b735786600a8281548110612a3657fe5b90600052602060002090600a020160090154148015612a72575085600a8281548110612a5e57fe5b90600052602060002090600a020160000154145b8015612ae6575084604051602001612a8a919061545b565b60405160208183030381529060405280519060200120600a8281548110612aad57fe5b90600052602060002090600a0201600101604051602001612ace9190615472565b60405160208183030381529060405280519060200120145b15612b6657600a8181548110612af857fe5b90600052602060002090600a020160080184604051602001612b1b929190615489565b604051602081830303815290604052600a8281548110612b3757fe5b90600052602060002090600a02016008019080519060200190612b5b929190614189565b506001925050612b8c565b8080600101915050612a1b565b600a80549050811415612b8a576000925050612b8c565b505b50949350505050565b612b9d614209565b600d6000838152602001908152602001600020604051806080016040529081600082018054600181600116156101000203166002900480601f016020809104026020016040519081016040528092919081815260200182805460018160011615610100020316600290048015612c545780601f10612c2957610100808354040283529160200191612c54565b820191906000526020600020905b815481529060010190602001808311612c3757829003601f168201915b50505050508152602001600182018054600181600116156101000203166002900480601f016020809104026020016040519081016040528092919081815260200182805460018160011615610100020316600290048015612cf65780601f10612ccb57610100808354040283529160200191612cf6565b820191906000526020600020905b815481529060010190602001808311612cd957829003601f168201915b50505050508152602001600282018054600181600116156101000203166002900480601f016020809104026020016040519081016040528092919081815260200182805460018160011615610100020316600290048015612d985780601f10612d6d57610100808354040283529160200191612d98565b820191906000526020600020905b815481529060010190602001808311612d7b57829003601f168201915b505050505081526020016003820154815250509050919050565b600a8181548110612dbf57fe5b90600052602060002090600a0201600091509050806000015490806001018054600181600116156101000203166002900480601f016020809104026020016040519081016040528092919081815260200182805460018160011615610100020316600290048015612e715780601f10612e4657610100808354040283529160200191612e71565b820191906000526020600020905b815481529060010190602001808311612e5457829003601f168201915b505050505090806002018054600181600116156101000203166002900480601f016020809104026020016040519081016040528092919081815260200182805460018160011615610100020316600290048015612f0f5780601f10612ee457610100808354040283529160200191612f0f565b820191906000526020600020905b815481529060010190602001808311612ef257829003601f168201915b505050505090806003018054600181600116156101000203166002900480601f016020809104026020016040519081016040528092919081815260200182805460018160011615610100020316600290048015612fad5780601f10612f8257610100808354040283529160200191612fad565b820191906000526020600020905b815481529060010190602001808311612f9057829003601f168201915b505050505090806004018054600181600116156101000203166002900480601f01602080910402602001604051908101604052809291908181526020018280546001816001161561010002031660029004801561304b5780601f106130205761010080835404028352916020019161304b565b820191906000526020600020905b81548152906001019060200180831161302e57829003601f168201915b505050505090806005018054600181600116156101000203166002900480601f0160208091040260200160405190810160405280929190818152602001828054600181600116156101000203166002900480156130e95780601f106130be576101008083540402835291602001916130e9565b820191906000526020600020905b8154815290600101906020018083116130cc57829003601f168201915b505050505090806006015490806007018054600181600116156101000203166002900480601f01602080910402602001604051908101604052809291908181526020018280546001816001161561010002031660029004801561318d5780601f106131625761010080835404028352916020019161318d565b820191906000526020600020905b81548152906001019060200180831161317057829003601f168201915b505050505090806008018054600181600116156101000203166002900480601f01602080910402602001604051908101604052809291908181526020018280546001816001161561010002031660029004801561322b5780601f106132005761010080835404028352916020019161322b565b820191906000526020600020905b81548152906001019060200180831161320e57829003601f168201915b505050505090806009015490508a565b613243611a8f565b613282576040517f08c379a000000000000000000000000000000000000000000000000000000000815260040161327990615638565b60405180910390fd5b61328b81613c20565b50565b606080600f6000848152602001908152602001600020546040519080825280602002602001820160405280156132de57816020015b6132cb614231565b8152602001906001900390816132c35790505b509050600080905060008090505b600a8054905081101561380d5784600a828154811061330757fe5b90600052602060002090600a020160090154141561380057600a818154811061332c57fe5b90600052602060002090600a02016040518061014001604052908160008201548152602001600182018054600181600116156101000203166002900480601f0160208091040260200160405190810160405280929190818152602001828054600181600116156101000203166002900480156133e95780601f106133be576101008083540402835291602001916133e9565b820191906000526020600020905b8154815290600101906020018083116133cc57829003601f168201915b50505050508152602001600282018054600181600116156101000203166002900480601f01602080910402602001604051908101604052809291908181526020018280546001816001161561010002031660029004801561348b5780601f106134605761010080835404028352916020019161348b565b820191906000526020600020905b81548152906001019060200180831161346e57829003601f168201915b50505050508152602001600382018054600181600116156101000203166002900480601f01602080910402602001604051908101604052809291908181526020018280546001816001161561010002031660029004801561352d5780601f106135025761010080835404028352916020019161352d565b820191906000526020600020905b81548152906001019060200180831161351057829003601f168201915b50505050508152602001600482018054600181600116156101000203166002900480601f0160208091040260200160405190810160405280929190818152602001828054600181600116156101000203166002900480156135cf5780601f106135a4576101008083540402835291602001916135cf565b820191906000526020600020905b8154815290600101906020018083116135b257829003601f168201915b50505050508152602001600582018054600181600116156101000203166002900480601f0160208091040260200160405190810160405280929190818152602001828054600181600116156101000203166002900480156136715780601f1061364657610100808354040283529160200191613671565b820191906000526020600020905b81548152906001019060200180831161365457829003601f168201915b5050505050815260200160068201548152602001600782018054600181600116156101000203166002900480601f01602080910402602001604051908101604052809291908181526020018280546001816001161561010002031660029004801561371d5780601f106136f25761010080835404028352916020019161371d565b820191906000526020600020905b81548152906001019060200180831161370057829003601f168201915b50505050508152602001600882018054600181600116156101000203166002900480601f0160208091040260200160405190810160405280929190818152602001828054600181600116156101000203166002900480156137bf5780601f10613794576101008083540402835291602001916137bf565b820191906000526020600020905b8154815290600101906020018083116137a257829003601f168201915b505050505081526020016009820154815250508383815181106137de57fe5b60200260200101819052506137fd600183613bcb90919063ffffffff16565b91505b80806001019150506132ec565b508192505050919050565b336001600360008373ffffffffffffffffffffffffffffffffffffffff1673ffffffffffffffffffffffffffffffffffffffff16815260200190815260200160002060009054906101000a900461ffff1661ffff16146138ad576040517f08c379a00000000000000000000000000000000000000000000000000000000081526004016138a490615598565b60405180910390fd5b60096040518060a00160405280888152602001878152602001868152602001858152602001848152509080600181540180825580915050906001820390600052602060002090600502016000909192909190915060008201518160000155602082015181600101556040820151816002019080519060200190613931929190614054565b50606082015181600301908051906020019061394e929190614054565b50608082015181600401908051906020019061396b929190614054565b505050506139966001600e600089815260200190815260200160002054613bcb90919063ffffffff16565b600e600088815260200190815260200160002081905550505050505050565b336001600360008373ffffffffffffffffffffffffffffffffffffffff1673ffffffffffffffffffffffffffffffffffffffff16815260200190815260200160002060009054906101000a900461ffff1661ffff1614613a4a576040517f08c379a0000000000000000000000000000000000000000000000000000000008152600401613a4190615598565b60405180910390fd5b613a5685858585613d4e565b7f975cf2b33de9b1a07500492e92dbb084414a16a398d6f61c4272257c6bc2dc00613aa36001600760009054906101000a900463ffffffff1663ffffffff16613b2490919063ffffffff16565b8686604051613ab49392919061587c565b60405180910390a15050505050565b60008082840190508363ffffffff168163ffffffff161015613b1a576040517f08c379a0000000000000000000000000000000000000000000000000000000008152600401613b11906155f8565b60405180910390fd5b8091505092915050565b6000613b6683836040518060400160405280601e81526020017f536166654d6174683a207375627472616374696f6e206f766572666c6f770000815250613fed565b905092915050565b60008082840190508361ffff168161ffff161015613bc1576040517f08c379a0000000000000000000000000000000000000000000000000000000008152600401613bb8906155f8565b60405180910390fd5b8091505092915050565b600080828401905083811015613c16576040517f08c379a0000000000000000000000000000000000000000000000000000000008152600401613c0d906155f8565b60405180910390fd5b8091505092915050565b600073ffffffffffffffffffffffffffffffffffffffff168173ffffffffffffffffffffffffffffffffffffffff161415613c90576040517f08c379a0000000000000000000000000000000000000000000000000000000008152600401613c87906155b8565b60405180910390fd5b8073ffffffffffffffffffffffffffffffffffffffff166000809054906101000a900473ffffffffffffffffffffffffffffffffffffffff1673ffffffffffffffffffffffffffffffffffffffff167f8be0079c531659141344cd1fd0a4f28419497f9722a3daafe3b4186f6b6457e060405160405180910390a3806000806101000a81548173ffffffffffffffffffffffffffffffffffffffff021916908373ffffffffffffffffffffffffffffffffffffffff16021790555050565b613d7a6001600760009054906101000a900463ffffffff1663ffffffff16613ac390919063ffffffff16565b600760006101000a81548163ffffffff021916908363ffffffff1602179055506000613dc86001600760009054906101000a900463ffffffff1663ffffffff16613b2490919063ffffffff16565b905060086040518060a001604052808363ffffffff168152602001878152602001868152602001858152602001848152509080600181540180825580915050906001820390600052602060002090600502016000909192909190915060008201518160000160006101000a81548163ffffffff021916908363ffffffff1602179055506020820151816001019080519060200190613e67929190614054565b506040820151816002019080519060200190613e84929190614054565b506060820151816003019080519060200190613ea1929190614054565b506080820151816004019080519060200190613ebe929190614054565b5050505033600c60008363ffffffff1663ffffffff16815260200190815260200160002060006101000a81548173ffffffffffffffffffffffffffffffffffffffff021916908373ffffffffffffffffffffffffffffffffffffffff160217905550613f896001600460003373ffffffffffffffffffffffffffffffffffffffff1673ffffffffffffffffffffffffffffffffffffffff16815260200190815260200160002060009054906101000a900463ffffffff1663ffffffff16613ac390919063ffffffff16565b600460003373ffffffffffffffffffffffffffffffffffffffff1673ffffffffffffffffffffffffffffffffffffffff16815260200190815260200160002060006101000a81548163ffffffff021916908363ffffffff1602179055505050505050565b60008363ffffffff168363ffffffff1611158290614041576040517f08c379a00000000000000000000000000000000000000000000000000000000081526004016140389190615576565b60405180910390fd5b5060008385039050809150509392505050565b828054600181600116156101000203166002900490600052602060002090601f016020900481019282601f1061409557805160ff19168380011785556140c3565b828001600101855582156140c3579182015b828111156140c25782518255916020019190600101906140a7565b5b5090506140d09190614284565b5090565b6040518060a0016040528060008152602001600081526020016060815260200160608152602001606081525090565b6040518060800160405280600081526020016060815260200160608152602001600081525090565b6040518060a0016040528060008152602001606081526020016060815260200160608152602001606081525090565b6040518060a0016040528060008152602001600081526020016060815260200160608152602001606081525090565b828054600181600116156101000203166002900490600052602060002090601f016020900481019282601f106141ca57805160ff19168380011785556141f8565b828001600101855582156141f8579182015b828111156141f75782518255916020019190600101906141dc565b5b5090506142059190614284565b5090565b6040518060800160405280606081526020016060815260200160608152602001600081525090565b604051806101400160405280600081526020016060815260200160608152602001606081526020016060815260200160608152602001600081526020016060815260200160608152602001600081525090565b6142a691905b808211156142a257600081600090555060010161428a565b5090565b90565b6000813590506142b881615bea565b92915050565b6000813590506142cd81615c01565b92915050565b600082601f8301126142e457600080fd5b81356142f76142f2826159b7565b61598a565b9150808252602083016020830185838301111561431357600080fd5b61431e838284615b97565b50505092915050565b60008135905061433681615c18565b92915050565b60006020828403121561434e57600080fd5b600061435c848285016142a9565b91505092915050565b60006020828403121561437757600080fd5b6000614385848285016142be565b91505092915050565b600080600080608085870312156143a457600080fd5b600085013567ffffffffffffffff8111156143be57600080fd5b6143ca878288016142d3565b945050602085013567ffffffffffffffff8111156143e757600080fd5b6143f3878288016142d3565b935050604085013567ffffffffffffffff81111561441057600080fd5b61441c878288016142d3565b925050606061442d878288016142a9565b91505092959194509250565b6000806000806080858703121561444f57600080fd5b600085013567ffffffffffffffff81111561446957600080fd5b614475878288016142d3565b945050602085013567ffffffffffffffff81111561449257600080fd5b61449e878288016142d3565b935050604085013567ffffffffffffffff8111156144bb57600080fd5b6144c7878288016142d3565b925050606085013567ffffffffffffffff8111156144e457600080fd5b6144f0878288016142d3565b91505092959194509250565b6000806000806080858703121561451257600080fd5b600085013567ffffffffffffffff81111561452c57600080fd5b614538878288016142d3565b945050602085013567ffffffffffffffff81111561455557600080fd5b614561878288016142d3565b935050604085013567ffffffffffffffff81111561457e57600080fd5b61458a878288016142d3565b925050606061459b87828801614327565b91505092959194509250565b6000602082840312156145b957600080fd5b60006145c784828501614327565b91505092915050565b600080600080600060a086880312156145e857600080fd5b60006145f688828901614327565b955050602086013567ffffffffffffffff81111561461357600080fd5b61461f888289016142d3565b945050604086013567ffffffffffffffff81111561463c57600080fd5b614648888289016142d3565b935050606086013567ffffffffffffffff81111561466557600080fd5b614671888289016142d3565b925050608086013567ffffffffffffffff81111561468e57600080fd5b61469a888289016142d3565b9150509295509295909350565b6000806000806000806000806000806101408b8d0312156146c757600080fd5b60006146d58d828e01614327565b9a505060208b013567ffffffffffffffff8111156146f257600080fd5b6146fe8d828e016142d3565b99505060408b013567ffffffffffffffff81111561471b57600080fd5b6147278d828e016142d3565b98505060608b013567ffffffffffffffff81111561474457600080fd5b6147508d828e016142d3565b97505060808b013567ffffffffffffffff81111561476d57600080fd5b6147798d828e016142d3565b96505060a08b013567ffffffffffffffff81111561479657600080fd5b6147a28d828e016142d3565b95505060c06147b38d828e01614327565b94505060e08b013567ffffffffffffffff8111156147d057600080fd5b6147dc8d828e016142d3565b9350506101008b013567ffffffffffffffff8111156147fa57600080fd5b6148068d828e016142d3565b9250506101206148188d828e01614327565b9150509295989b9194979a5092959850565b6000806000806080858703121561484057600080fd5b600061484e87828801614327565b945050602085013567ffffffffffffffff81111561486b57600080fd5b614877878288016142d3565b935050604085013567ffffffffffffffff81111561489457600080fd5b6148a0878288016142d3565b92505060606148b187828801614327565b91505092959194509250565b600080600080608085870312156148d357600080fd5b60006148e187828801614327565b94505060206148f287828801614327565b935050604085013567ffffffffffffffff81111561490f57600080fd5b61491b878288016142d3565b925050606085013567ffffffffffffffff81111561493857600080fd5b614944878288016142d3565b91505092959194509250565b600080600080600060a0868803121561496857600080fd5b600061497688828901614327565b955050602061498788828901614327565b945050604086013567ffffffffffffffff8111156149a457600080fd5b6149b0888289016142d3565b935050606086013567ffffffffffffffff8111156149cd57600080fd5b6149d9888289016142d3565b925050608086013567ffffffffffffffff8111156149f657600080fd5b614a02888289016142d3565b9150509295509295909350565b6000614a1b8383615013565b905092915050565b6000614a2f838361507d565b905092915050565b6000614a438383615172565b905092915050565b6000614a57838361530c565b905092915050565b614a6881615b31565b82525050565b6000614a7982615a38565b614a838185615aae565b935083602082028501614a95856159e3565b8060005b85811015614ad15784840389528151614ab28582614a0f565b9450614abd83615a7a565b925060208a01995050600181019050614a99565b50829750879550505050505092915050565b6000614aee82615a43565b614af88185615abf565b935083602082028501614b0a856159f3565b8060005b85811015614b465784840389528151614b278582614a23565b9450614b3283615a87565b925060208a01995050600181019050614b0e565b50829750879550505050505092915050565b6000614b6382615a4e565b614b6d8185615ad0565b935083602082028501614b7f85615a03565b8060005b85811015614bbb5784840389528151614b9c8582614a37565b9450614ba783615a94565b925060208a01995050600181019050614b83565b50829750879550505050505092915050565b6000614bd882615a59565b614be28185615ae1565b935083602082028501614bf485615a13565b8060005b85811015614c305784840389528151614c118582614a4b565b9450614c1c83615aa1565b925060208a01995050600181019050614bf8565b50829750879550505050505092915050565b614c4b81615b43565b82525050565b6000614c5c82615a6f565b614c668185615b03565b9350614c76818560208601615ba6565b614c7f81615bd9565b840191505092915050565b6000614c9582615a6f565b614c9f8185615b14565b9350614caf818560208601615ba6565b80840191505092915050565b6000614cc682615a64565b614cd08185615af2565b9350614ce0818560208601615ba6565b614ce981615bd9565b840191505092915050565b6000614cff82615a64565b614d098185615b03565b9350614d19818560208601615ba6565b614d2281615bd9565b840191505092915050565b600081546001811660008114614d4a5760018114614d6f57614db3565b607f6002830416614d5b8187615b14565b955060ff1983168652808601935050614db3565b60028204614d7d8187615b14565b9550614d8885615a23565b60005b82811015614daa57815481890152600182019150602081019050614d8b565b82880195505050505b505092915050565b6000614dc8603083615b03565b91507f53656e646572206e6f7420617574686f72697a656420203a3a3a20497420736860008301527f6f756c64206265206120646f63746f72000000000000000000000000000000006020830152604082019050919050565b6000614e2e602683615b03565b91507f4f776e61626c653a206e6577206f776e657220697320746865207a65726f206160008301527f64647265737300000000000000000000000000000000000000000000000000006020830152604082019050919050565b6000614e94603983615b03565b91507f546869732070617469656e742068617320616c7265616479206e6f6e2076617260008301527f6961626c65206578616d696e6174696f6e2073657474696e67000000000000006020830152604082019050919050565b6000614efa601b83615b03565b91507f536166654d6174683a206164646974696f6e206f766572666c6f7700000000006000830152602082019050919050565b6000614f3a603083615b03565b91507f53656e646572206e6f7420617574686f72697a65642e20497420616c7265616460008301527f792068617320616e206163636f756e74000000000000000000000000000000006020830152604082019050919050565b6000614fa0600183615b14565b91507f20000000000000000000000000000000000000000000000000000000000000006000830152600182019050919050565b6000614fe0602083615b03565b91507f4f776e61626c653a2063616c6c6572206973206e6f7420746865206f776e65726000830152602082019050919050565b600060808301600083015161502b600086018261541f565b50602083015184820360208601526150438282614cbb565b9150506040830151848203604086015261505d8282614cbb565b9150506060830151615072606086018261541f565b508091505092915050565b600060a083016000830151615095600086018261541f565b5060208301516150a8602086018261541f565b50604083015184820360408601526150c08282614cbb565b915050606083015184820360608601526150da8282614cbb565b915050608083015184820360808601526150f48282614cbb565b9150508091505092915050565b6000608083016000830151848203600086015261511e8282614cbb565b915050602083015184820360208601526151388282614cbb565b915050604083015184820360408601526151528282614cbb565b9150506060830151615167606086018261541f565b508091505092915050565b600060a08301600083015161518a600086018261543d565b50602083015184820360208601526151a28282614cbb565b915050604083015184820360408601526151bc8282614cbb565b915050606083015184820360608601526151d68282614cbb565b915050608083015184820360808601526151f08282614cbb565b9150508091505092915050565b600060a083016000830151615215600086018261541f565b506020830151848203602086015261522d8282614cbb565b915050604083015184820360408601526152478282614cbb565b915050606083015184820360608601526152618282614cbb565b9150506080830151848203608086015261527b8282614cbb565b9150508091505092915050565b600060a0830160008301516152a0600086018261541f565b5060208301516152b3602086018261541f565b50604083015184820360408601526152cb8282614cbb565b915050606083015184820360608601526152e58282614cbb565b915050608083015184820360808601526152ff8282614cbb565b9150508091505092915050565b600061014083016000830151615325600086018261541f565b506020830151848203602086015261533d8282614cbb565b915050604083015184820360408601526153578282614cbb565b915050606083015184820360608601526153718282614cbb565b9150506080830151848203608086015261538b8282614cbb565b91505060a083015184820360a08601526153a58282614cbb565b91505060c08301516153ba60c086018261541f565b5060e083015184820360e08601526153d28282614cbb565b9150506101008301518482036101008601526153ee8282614cbb565b91505061012083015161540561012086018261541f565b508091505092915050565b61541981615b4f565b82525050565b61542881615b7d565b82525050565b61543781615b7d565b82525050565b61544681615b87565b82525050565b61545581615b87565b82525050565b60006154678284614c8a565b915081905092915050565b600061547e8284614d2d565b915081905092915050565b60006154958285614d2d565b91506154a082614f93565b91506154ac8284614c8a565b91508190509392505050565b60006020820190506154cd6000830184614a5f565b92915050565b600060208201905081810360008301526154ed8184614a6e565b905092915050565b6000602082019050818103600083015261550f8184614ae3565b905092915050565b600060208201905081810360008301526155318184614b58565b905092915050565b600060208201905081810360008301526155538184614bcd565b905092915050565b60006020820190506155706000830184614c42565b92915050565b600060208201905081810360008301526155908184614c51565b905092915050565b600060208201905081810360008301526155b181614dbb565b9050919050565b600060208201905081810360008301526155d181614e21565b9050919050565b600060208201905081810360008301526155f181614e87565b9050919050565b6000602082019050818103600083015261561181614eed565b9050919050565b6000602082019050818103600083015261563181614f2d565b9050919050565b6000602082019050818103600083015261565181614fd3565b9050919050565b600060208201905081810360008301526156728184615101565b905092915050565b6000602082019050818103600083015261569481846151fd565b905092915050565b600060208201905081810360008301526156b68184615288565b905092915050565b60006020820190506156d36000830184615410565b92915050565b6000610140820190506156ef600083018d61542e565b8181036020830152615701818c614cf4565b90508181036040830152615715818b614cf4565b90508181036060830152615729818a614cf4565b9050818103608083015261573d8189614cf4565b905081810360a08301526157518188614cf4565b905061576060c083018761542e565b81810360e08301526157728186614cf4565b90508181036101008301526157878185614cf4565b905061579761012083018461542e565b9b9a5050505050505050505050565b60006080820190506157bb600083018761542e565b81810360208301526157cd8186614cf4565b905081810360408301526157e18185614cf4565b90506157f0606083018461542e565b95945050505050565b600060a08201905061580e600083018861542e565b61581b602083018761542e565b818103604083015261582d8186614cf4565b905081810360608301526158418185614cf4565b905081810360808301526158558184614cf4565b90509695505050505050565b6000602082019050615876600083018461544c565b92915050565b6000606082019050615891600083018661544c565b81810360208301526158a38185614c51565b905081810360408301526158b78184614c51565b9050949350505050565b60006080820190506158d6600083018761544c565b81810360208301526158e88186614cf4565b905081810360408301526158fc8185614cf4565b905081810360608301526159108184614cf4565b905095945050505050565b600060a082019050615930600083018861544c565b81810360208301526159428187614cf4565b905081810360408301526159568186614cf4565b9050818103606083015261596a8185614cf4565b9050818103608083015261597e8184614cf4565b90509695505050505050565b6000604051905081810181811067ffffffffffffffff821117156159ad57600080fd5b8060405250919050565b600067ffffffffffffffff8211156159ce57600080fd5b601f19601f8301169050602081019050919050565b6000819050602082019050919050565b6000819050602082019050919050565b6000819050602082019050919050565b6000819050602082019050919050565b60008190508160005260206000209050919050565b600081519050919050565b600081519050919050565b600081519050919050565b600081519050919050565b600081519050919050565b600081519050919050565b6000602082019050919050565b6000602082019050919050565b6000602082019050919050565b6000602082019050919050565b600082825260208201905092915050565b600082825260208201905092915050565b600082825260208201905092915050565b600082825260208201905092915050565b600082825260208201905092915050565b600082825260208201905092915050565b600081905092915050565b6000615b2a82615b5d565b9050919050565b6000615b3c82615b5d565b9050919050565b60008115159050919050565b600061ffff82169050919050565b600073ffffffffffffffffffffffffffffffffffffffff82169050919050565b6000819050919050565b600063ffffffff82169050919050565b82818337600083830152505050565b60005b83811015615bc4578082015181840152602081019050615ba9565b83811115615bd3576000848401525b50505050565b6000601f19601f8301169050919050565b615bf381615b1f565b8114615bfe57600080fd5b50565b615c0a81615b31565b8114615c1557600080fd5b50565b615c2181615b7d565b8114615c2c57600080fd5b5056fea365627a7a72315820903f62f18f354577651abd6be49a9ada6d7b1007c8a03454030bb5153b22e4706c6578706572696d656e74616cf564736f6c63430005100040",
  "source": "// SPDX-License-Identifier: MIT\r\npragma solidity >=0.5.0 <0.8.0;\r\n//pragma solidity ^0.5.16;\r\npragma experimental ABIEncoderV2;\r\n\r\nimport \"./SafeMath.sol\";\r\nimport \"./Doctor.sol\";\r\nimport \"./NonVariableExamination.sol\";\r\nimport \"./SpecialtyMedicine.sol\";\r\nimport \"./Allergy.sol\";\r\nimport \"./Examination.sol\";\r\n\r\ncontract Patient is Doctor, NonVariableExamination, SpecialtyMedicine, Allergy, Examination {\r\n\r\n    using SafeMath for uint256;\r\n    using SafeMath32 for uint32;\r\n    using SafeMath16 for uint16;\r\n\r\n    uint32 public counterPatient = 0;\r\n\r\n    struct PatientInfo {\r\n        uint32 patientId;\r\n        string firstName;\r\n        string lastName;\r\n        string gender;\r\n        string addressOfPatient;\r\n    }\r\n\r\n    PatientInfo[] public patients;\r\n    ExaminationInfo[] public orderExamination;\r\n    SpecialtyMedicineInfo[] public allSpecialtyMedicine;\r\n    AllergyInfo[] public allAllergies;\r\n\r\n    event NewPatient(uint32 patientId, string firstName, string lastName);\r\n\r\n    mapping (uint32 => address) patientCreatedBy;\r\n    mapping (uint => NonVariableExaminationInfo) nonVariableExaminationOfPatient; // keep a non variable examination\r\n    mapping (uint => uint) orderExaminationToPatientCount;\r\n    mapping (uint => uint) specialtyMedicineToPatientCount;\r\n    mapping (uint => uint) allergyPatientCount;\r\n    mapping (uint => uint16) nonVariableExaminationOfPatientCount;\r\n\r\n    function _createPatient(string memory _firstName,\r\n        string memory _lastName,\r\n        string memory _gender,\r\n        string memory _addressOfPatient) private {\r\n        counterPatient = counterPatient.add(1);\r\n        uint32 idPatient = counterPatient.sub(1);\r\n        patients.push(PatientInfo(idPatient, _firstName, _lastName, _gender, _addressOfPatient));\r\n        patientCreatedBy[idPatient] = msg.sender;\r\n        ownerPatientCount[msg.sender] = ownerPatientCount[msg.sender].add(1);\r\n    }\r\n\r\n    function addPatient(string memory _firstName,\r\n        string memory _lastName,\r\n        string memory _gender,\r\n        string memory _addressOfPatient) public isDoctor(msg.sender) {\r\n        _createPatient(_firstName, _lastName, _gender, _addressOfPatient);\r\n        emit NewPatient(counterPatient.sub(1), _firstName, _lastName);\r\n    }\r\n\r\n    function getAllPatient() public view returns (PatientInfo[] memory) {\r\n        return patients;\r\n    }\r\n\r\n    /* Record the non-variable biological examinations of a patient i.e blood group, rhesus, electrophoresis\r\n    It records these parameters once time */\r\n    function setNonVariableExamination(string memory _bloodGroup,\r\n        string memory _rhesus,\r\n        string memory _electrophoresis,\r\n        uint _patientId) public isDoctor(msg.sender) {\r\n        require(nonVariableExaminationOfPatientCount[_patientId] == 0, 'This patient has already non variable examination setting');\r\n        nonVariableExaminationOfPatient[_patientId] = NonVariableExaminationInfo(_bloodGroup,\r\n        _rhesus,\r\n        _electrophoresis,\r\n        _patientId);\r\n        nonVariableExaminationOfPatientCount[_patientId] = nonVariableExaminationOfPatientCount[_patientId].add(1);\r\n    }\r\n\r\n    // Recover the non-variable biological examinations of a patient i.e blood group, rhesus, electrophoresis\r\n    function getNonVariableExamination(uint _patientId) public view returns (NonVariableExaminationInfo memory){\r\n        return nonVariableExaminationOfPatient[_patientId];\r\n    }\r\n\r\n    // Add a speciality medicine prescribe by the doctor to any patient\r\n    function prescribeSpecialtyMedicine(uint _documentId,\r\n        string memory _medicationCode,\r\n        string memory _medicationName,\r\n        string memory _normalStartDate,\r\n        string memory _normalEndDate,\r\n        string memory _DosageUnit,\r\n        uint _DosageQuantity,\r\n        string memory _prescriptionDate,\r\n        string memory _observation,\r\n        uint _patientId) public isDoctor(msg.sender) {\r\n        allSpecialtyMedicine.push(SpecialtyMedicineInfo(_documentId,\r\n            _medicationCode,\r\n            _medicationName,\r\n            _normalStartDate,\r\n            _normalEndDate,\r\n            _DosageUnit,\r\n            _DosageQuantity,\r\n            _prescriptionDate,\r\n            _observation,\r\n            _patientId));\r\n        specialtyMedicineToPatientCount[_patientId] = specialtyMedicineToPatientCount[_patientId].add(1);\r\n    }\r\n\r\n    // During the use of the drug the patient noticed side effects. He reports them to the doctor who records them\r\n    function setObservationAfterPrescription(uint _patientId,\r\n        uint _documentId,\r\n        string memory _medicationCode,\r\n        string memory _observation) public isDoctor(msg.sender) returns (bool) {\r\n        uint i;\r\n        for(i = 0; i < allSpecialtyMedicine.length; i++) {\r\n            if (allSpecialtyMedicine[i].patientId == _patientId &&\r\n                allSpecialtyMedicine[i].documentId == _documentId &&\r\n                keccak256(abi.encodePacked(allSpecialtyMedicine[i].medicationCode)) == keccak256(abi.encodePacked(_medicationCode))) {\r\n                allSpecialtyMedicine[i].observation = string(abi.encodePacked(allSpecialtyMedicine[i].observation, \" \",_observation));\r\n                return true;\r\n            }\r\n        }\r\n        if (i == allSpecialtyMedicine.length) {\r\n            return false;\r\n        }\r\n    }\r\n\r\n    // Get all medecide took by one patient\r\n    function getAllPrescribeMedicine(uint _patientId) public view returns (SpecialtyMedicineInfo[] memory) {\r\n        SpecialtyMedicineInfo[] memory allMedicine = new SpecialtyMedicineInfo[](specialtyMedicineToPatientCount[_patientId]);\r\n        uint counter = 0;\r\n        for(uint i = 0; i < allSpecialtyMedicine.length; i++) {\r\n            if (allSpecialtyMedicine[i].patientId == _patientId) {\r\n                allMedicine[counter] = allSpecialtyMedicine[i];\r\n                counter = counter.add(1);\r\n            }\r\n        }\r\n        return allMedicine;\r\n    }\r\n\r\n    // Add alergies record\r\n    function addAllergy(uint _allergytId, string memory _allergyName, string memory _observation, uint _patientId) public isDoctor(msg.sender) {\r\n        allAllergies.push(AllergyInfo(_allergytId,\r\n            _allergyName,\r\n            _observation,\r\n            _patientId));\r\n        allergyPatientCount[_patientId] = allergyPatientCount[_patientId].add(1);\r\n\r\n    }\r\n\r\n    // Get allergies of a patient through its Id\r\n    function getAllergies(uint _patientId) public view returns (AllergyInfo[] memory) {\r\n        AllergyInfo[] memory allAllergiesOfPatient = new AllergyInfo[](allergyPatientCount[_patientId]);\r\n        uint counter = 0;\r\n        for(uint i = 0; i < allAllergies.length; i++) {\r\n            if (allAllergies[i].patientId == _patientId) {\r\n                allAllergiesOfPatient[counter] = allAllergies[i];\r\n                counter = counter.add(1);\r\n            }\r\n        }\r\n        return allAllergiesOfPatient;\r\n    }\r\n\r\n    //Records a medical examination prescription made by a doctor\r\n    function orderAnExamination(uint _patientId,\r\n        uint _docExaminationId,\r\n        string memory _codeExaminationName,\r\n        string memory _examinationName,\r\n        string memory _orderedDate) public isDoctor(msg.sender) {\r\n        orderExamination.push(ExaminationInfo(_patientId,\r\n        _docExaminationId,\r\n        _codeExaminationName,\r\n        _examinationName,\r\n        _orderedDate));\r\n        orderExaminationToPatientCount[_patientId] = orderExaminationToPatientCount[_patientId].add(1);\r\n    }\r\n\r\n    //Returns all the different medical exams prescribed to a given patient\r\n    function allExaminationOrderToPatient(uint _patientId) public view returns (ExaminationInfo[] memory){\r\n        ExaminationInfo[] memory myExaminations = new ExaminationInfo[](orderExaminationToPatientCount[_patientId]);\r\n        uint counter = 0;\r\n        for(uint i = 0; i < orderExamination.length; i++) {\r\n            if (orderExamination[i].patientId == _patientId) {\r\n                myExaminations[counter] = orderExamination[i];\r\n                counter = counter.add(1);\r\n            }\r\n        }\r\n        return myExaminations;\r\n    }\r\n\r\n    //Record the result of a prescribed medical examination\r\n    function addResultOfOrderExamination(uint _docResultId,\r\n        uint _docExaminationId,\r\n        string memory _resultCode,\r\n        string memory _codeResultName,\r\n        string memory _observationDate) public isDoctor(msg.sender){\r\n        resultOfAnExamination[_docExaminationId] = ResultExaminationInfo(_docResultId,\r\n        _docExaminationId,\r\n        _resultCode,\r\n        _codeResultName,\r\n        _observationDate);\r\n    }\r\n\r\n    //Recover the result of an examination prescribed by a doctor\r\n    function getResultOfOrderExamination(uint _docExaminationId) public view returns (ResultExaminationInfo memory) {\r\n        return resultOfAnExamination[_docExaminationId];\r\n    }\r\n\r\n    //Record the result detail of a prescribed medical examination\r\n    function addResultDetailExamination(uint _docResultId,\r\n        string memory _componentName,\r\n        string memory _labName,\r\n        string memory _resultValue,\r\n        string memory _resultObservation) public isDoctor(msg.sender) {\r\n        detailOfResultExamination[_docResultId] = ResultExaminationDetailInfo(_docResultId,\r\n        _componentName,\r\n        _labName,\r\n        _resultValue,\r\n        _resultObservation);\r\n    }\r\n\r\n    //Recover the result detail of an examination prescribed by a doctor\r\n    function getResultDetailExamination(uint _docResultId) public view returns (ResultExaminationDetailInfo memory) {\r\n        return detailOfResultExamination[_docResultId];\r\n    }\r\n}",
  "sourcePath": "C:/Ethereum/healthcareBook/contracts/Patient.sol",
  "compiler": {
    "name": "solc",
    "version": "0.5.16+commit.9c3226ce.Emscripten.clang"
  },
  "schemaVersion": "3.2.3",
  "updatedAt": "2020-09-08T08:17:08.880Z",
  "networkType": "ethereum",
  "devdoc": {
    "methods": {
      "isOwner()": {
        "return": "true if `msg.sender` is the owner of the contract."
      },
      "owner()": {
        "return": "the address of the owner."
      },
      "renounceOwnership()": {
        "details": "Allows the current owner to relinquish control of the contract."
      },
      "transferOwnership(address)": {
        "details": "Allows the current owner to transfer control of the contract to a newOwner.",
        "params": {
          "newOwner": "The address to transfer ownership to."
        }
      }
    }
  },
  "userdoc": {
    "methods": {
      "renounceOwnership()": {
        "notice": "Renouncing to ownership will leave the contract without an owner. It will not be possible to call the functions with the `onlyOwner` modifier anymore."
      }
    }
  }
}