{
  "contractName": "Patient",
  "abi": [
    {
      "anonymous": false,
      "inputs": [
        {
          "indexed": false,
          "internalType": "uint32",
          "name": "doctorId",
          "type": "uint32"
        },
        {
          "indexed": false,
          "internalType": "string",
          "name": "firstName",
          "type": "string"
        },
        {
          "indexed": false,
          "internalType": "string",
          "name": "lastName",
          "type": "string"
        }
      ],
      "name": "NewDoctor",
      "type": "event"
    },
    {
      "anonymous": false,
      "inputs": [
        {
          "indexed": false,
          "internalType": "uint32",
          "name": "patientId",
          "type": "uint32"
        },
        {
          "indexed": false,
          "internalType": "string",
          "name": "firstName",
          "type": "string"
        },
        {
          "indexed": false,
          "internalType": "string",
          "name": "lastName",
          "type": "string"
        }
      ],
      "name": "NewPatient",
      "type": "event"
    },
    {
      "anonymous": false,
      "inputs": [
        {
          "indexed": true,
          "internalType": "address",
          "name": "previousOwner",
          "type": "address"
        },
        {
          "indexed": true,
          "internalType": "address",
          "name": "newOwner",
          "type": "address"
        }
      ],
      "name": "OwnershipTransferred",
      "type": "event"
    },
    {
      "inputs": [
        {
          "internalType": "string",
          "name": "_firstName",
          "type": "string"
        },
        {
          "internalType": "string",
          "name": "_lastName",
          "type": "string"
        },
        {
          "internalType": "string",
          "name": "_hospitalAddress",
          "type": "string"
        },
        {
          "internalType": "address",
          "name": "addressDoctor",
          "type": "address"
        }
      ],
      "name": "addDoctor",
      "outputs": [],
      "stateMutability": "nonpayable",
      "type": "function"
    },
    {
      "inputs": [
        {
          "internalType": "uint256",
          "name": "",
          "type": "uint256"
        }
      ],
      "name": "allAllergies",
      "outputs": [
        {
          "internalType": "uint256",
          "name": "allergyId",
          "type": "uint256"
        },
        {
          "internalType": "string",
          "name": "allergyName",
          "type": "string"
        },
        {
          "internalType": "string",
          "name": "observation",
          "type": "string"
        },
        {
          "internalType": "uint256",
          "name": "patientId",
          "type": "uint256"
        }
      ],
      "stateMutability": "view",
      "type": "function",
      "constant": true
    },
    {
      "inputs": [
        {
          "internalType": "uint256",
          "name": "",
          "type": "uint256"
        }
      ],
      "name": "allSpecialtyMedicine",
      "outputs": [
        {
          "internalType": "string",
          "name": "documentCode",
          "type": "string"
        },
        {
          "internalType": "string",
          "name": "medicationCode",
          "type": "string"
        },
        {
          "internalType": "string",
          "name": "medicationName",
          "type": "string"
        },
        {
          "internalType": "string",
          "name": "normalStartDate",
          "type": "string"
        },
        {
          "internalType": "string",
          "name": "normalEndDate",
          "type": "string"
        },
        {
          "internalType": "string",
          "name": "DosageUnit",
          "type": "string"
        },
        {
          "internalType": "uint256",
          "name": "DosageQuantity",
          "type": "uint256"
        },
        {
          "internalType": "string",
          "name": "prescriptionDate",
          "type": "string"
        },
        {
          "internalType": "string",
          "name": "observation",
          "type": "string"
        },
        {
          "internalType": "uint256",
          "name": "patientId",
          "type": "uint256"
        }
      ],
      "stateMutability": "view",
      "type": "function",
      "constant": true
    },
    {
      "inputs": [],
      "name": "counterAllergy",
      "outputs": [
        {
          "internalType": "uint256",
          "name": "",
          "type": "uint256"
        }
      ],
      "stateMutability": "view",
      "type": "function",
      "constant": true
    },
    {
      "inputs": [],
      "name": "counterDoctor",
      "outputs": [
        {
          "internalType": "uint32",
          "name": "",
          "type": "uint32"
        }
      ],
      "stateMutability": "view",
      "type": "function",
      "constant": true
    },
    {
      "inputs": [],
      "name": "counterPatient",
      "outputs": [
        {
          "internalType": "uint32",
          "name": "",
          "type": "uint32"
        }
      ],
      "stateMutability": "view",
      "type": "function",
      "constant": true
    },
    {
      "inputs": [
        {
          "internalType": "address",
          "name": "",
          "type": "address"
        }
      ],
      "name": "doctorCount",
      "outputs": [
        {
          "internalType": "uint16",
          "name": "",
          "type": "uint16"
        }
      ],
      "stateMutability": "view",
      "type": "function",
      "constant": true
    },
    {
      "inputs": [
        {
          "internalType": "uint256",
          "name": "",
          "type": "uint256"
        }
      ],
      "name": "doctors",
      "outputs": [
        {
          "internalType": "uint32",
          "name": "doctorId",
          "type": "uint32"
        },
        {
          "internalType": "string",
          "name": "firstName",
          "type": "string"
        },
        {
          "internalType": "string",
          "name": "lastName",
          "type": "string"
        },
        {
          "internalType": "string",
          "name": "hospitalAddress",
          "type": "string"
        }
      ],
      "stateMutability": "view",
      "type": "function",
      "constant": true
    },
    {
      "inputs": [],
      "name": "isOwner",
      "outputs": [
        {
          "internalType": "bool",
          "name": "",
          "type": "bool"
        }
      ],
      "stateMutability": "view",
      "type": "function",
      "constant": true
    },
    {
      "inputs": [
        {
          "internalType": "uint256",
          "name": "",
          "type": "uint256"
        }
      ],
      "name": "orderExamination",
      "outputs": [
        {
          "internalType": "uint256",
          "name": "docExaminationId",
          "type": "uint256"
        },
        {
          "internalType": "uint256",
          "name": "patientId",
          "type": "uint256"
        },
        {
          "internalType": "string",
          "name": "codeExaminationName",
          "type": "string"
        },
        {
          "internalType": "string",
          "name": "examinationName",
          "type": "string"
        },
        {
          "internalType": "string",
          "name": "orderedDate",
          "type": "string"
        }
      ],
      "stateMutability": "view",
      "type": "function",
      "constant": true
    },
    {
      "inputs": [],
      "name": "owner",
      "outputs": [
        {
          "internalType": "address payable",
          "name": "",
          "type": "address"
        }
      ],
      "stateMutability": "view",
      "type": "function",
      "constant": true
    },
    {
      "inputs": [
        {
          "internalType": "address",
          "name": "",
          "type": "address"
        }
      ],
      "name": "ownerPatientCount",
      "outputs": [
        {
          "internalType": "uint32",
          "name": "",
          "type": "uint32"
        }
      ],
      "stateMutability": "view",
      "type": "function",
      "constant": true
    },
    {
      "inputs": [
        {
          "internalType": "uint256",
          "name": "",
          "type": "uint256"
        }
      ],
      "name": "patients",
      "outputs": [
        {
          "internalType": "uint32",
          "name": "patientId",
          "type": "uint32"
        },
        {
          "internalType": "string",
          "name": "firstName",
          "type": "string"
        },
        {
          "internalType": "string",
          "name": "lastName",
          "type": "string"
        },
        {
          "internalType": "string",
          "name": "gender",
          "type": "string"
        },
        {
          "internalType": "string",
          "name": "addressOfPatient",
          "type": "string"
        }
      ],
      "stateMutability": "view",
      "type": "function",
      "constant": true
    },
    {
      "inputs": [],
      "name": "renounceOwnership",
      "outputs": [],
      "stateMutability": "nonpayable",
      "type": "function"
    },
    {
      "inputs": [
        {
          "internalType": "address payable",
          "name": "newOwner",
          "type": "address"
        }
      ],
      "name": "transferOwnership",
      "outputs": [],
      "stateMutability": "nonpayable",
      "type": "function"
    },
    {
      "inputs": [
        {
          "internalType": "string",
          "name": "_firstName",
          "type": "string"
        },
        {
          "internalType": "string",
          "name": "_lastName",
          "type": "string"
        },
        {
          "internalType": "string",
          "name": "_gender",
          "type": "string"
        },
        {
          "internalType": "string",
          "name": "_addressOfPatient",
          "type": "string"
        }
      ],
      "name": "addPatient",
      "outputs": [],
      "stateMutability": "nonpayable",
      "type": "function"
    },
    {
      "inputs": [
        {
          "internalType": "uint32",
          "name": "_patientId",
          "type": "uint32"
        }
      ],
      "name": "isPatient",
      "outputs": [
        {
          "internalType": "bool",
          "name": "",
          "type": "bool"
        }
      ],
      "stateMutability": "view",
      "type": "function",
      "constant": true
    },
    {
      "inputs": [
        {
          "internalType": "uint32",
          "name": "_patientId",
          "type": "uint32"
        }
      ],
      "name": "getThePatient",
      "outputs": [
        {
          "internalType": "string",
          "name": "",
          "type": "string"
        },
        {
          "internalType": "string",
          "name": "",
          "type": "string"
        },
        {
          "internalType": "string",
          "name": "",
          "type": "string"
        },
        {
          "internalType": "string",
          "name": "",
          "type": "string"
        }
      ],
      "stateMutability": "view",
      "type": "function",
      "constant": true
    },
    {
      "inputs": [
        {
          "internalType": "string",
          "name": "_bloodGroup",
          "type": "string"
        },
        {
          "internalType": "string",
          "name": "_rhesus",
          "type": "string"
        },
        {
          "internalType": "string",
          "name": "_electrophoresis",
          "type": "string"
        },
        {
          "internalType": "uint256",
          "name": "_patientId",
          "type": "uint256"
        }
      ],
      "name": "setNonVariableExamination",
      "outputs": [],
      "stateMutability": "nonpayable",
      "type": "function"
    },
    {
      "inputs": [
        {
          "internalType": "uint256",
          "name": "_patientId",
          "type": "uint256"
        }
      ],
      "name": "getNonVariableExamination",
      "outputs": [
        {
          "internalType": "string",
          "name": "",
          "type": "string"
        },
        {
          "internalType": "string",
          "name": "",
          "type": "string"
        },
        {
          "internalType": "string",
          "name": "",
          "type": "string"
        }
      ],
      "stateMutability": "view",
      "type": "function",
      "constant": true
    },
    {
      "inputs": [
        {
          "internalType": "string",
          "name": "_documentCode",
          "type": "string"
        },
        {
          "internalType": "string",
          "name": "_medicationCode",
          "type": "string"
        },
        {
          "internalType": "string",
          "name": "_medicationName",
          "type": "string"
        },
        {
          "internalType": "string",
          "name": "_normalStartDate",
          "type": "string"
        },
        {
          "internalType": "string",
          "name": "_normalEndDate",
          "type": "string"
        },
        {
          "internalType": "string",
          "name": "_DosageUnit",
          "type": "string"
        },
        {
          "internalType": "uint256",
          "name": "_DosageQuantity",
          "type": "uint256"
        },
        {
          "internalType": "string",
          "name": "_prescriptionDate",
          "type": "string"
        },
        {
          "internalType": "string",
          "name": "_observation",
          "type": "string"
        },
        {
          "internalType": "uint256",
          "name": "_patientId",
          "type": "uint256"
        }
      ],
      "name": "prescribeSpecialtyMedicine",
      "outputs": [],
      "stateMutability": "nonpayable",
      "type": "function"
    },
    {
      "inputs": [
        {
          "internalType": "uint256",
          "name": "_patientId",
          "type": "uint256"
        }
      ],
      "name": "medicineCountOfPatient",
      "outputs": [
        {
          "internalType": "uint256",
          "name": "",
          "type": "uint256"
        }
      ],
      "stateMutability": "view",
      "type": "function",
      "constant": true
    },
    {
      "inputs": [
        {
          "internalType": "uint256",
          "name": "_patientId",
          "type": "uint256"
        },
        {
          "internalType": "string",
          "name": "_documentCode",
          "type": "string"
        },
        {
          "internalType": "string",
          "name": "_medicationCode",
          "type": "string"
        },
        {
          "internalType": "string",
          "name": "_observation",
          "type": "string"
        }
      ],
      "name": "setObservationAfterPrescription",
      "outputs": [
        {
          "internalType": "bool",
          "name": "",
          "type": "bool"
        }
      ],
      "stateMutability": "nonpayable",
      "type": "function"
    },
    {
      "inputs": [
        {
          "internalType": "uint256",
          "name": "_patientId",
          "type": "uint256"
        }
      ],
      "name": "getAllPrescribeMedicine",
      "outputs": [
        {
          "internalType": "uint256[]",
          "name": "",
          "type": "uint256[]"
        }
      ],
      "stateMutability": "view",
      "type": "function",
      "constant": true
    },
    {
      "inputs": [
        {
          "internalType": "uint256",
          "name": "_documentId",
          "type": "uint256"
        }
      ],
      "name": "getPrescribeMedicine1",
      "outputs": [
        {
          "internalType": "string",
          "name": "",
          "type": "string"
        },
        {
          "internalType": "string",
          "name": "",
          "type": "string"
        },
        {
          "internalType": "string",
          "name": "",
          "type": "string"
        },
        {
          "internalType": "string",
          "name": "",
          "type": "string"
        }
      ],
      "stateMutability": "view",
      "type": "function",
      "constant": true
    },
    {
      "inputs": [
        {
          "internalType": "uint256",
          "name": "_documentId",
          "type": "uint256"
        }
      ],
      "name": "getPrescribeMedicine2",
      "outputs": [
        {
          "internalType": "string",
          "name": "",
          "type": "string"
        },
        {
          "internalType": "uint256",
          "name": "",
          "type": "uint256"
        },
        {
          "internalType": "string",
          "name": "",
          "type": "string"
        },
        {
          "internalType": "string",
          "name": "",
          "type": "string"
        },
        {
          "internalType": "uint256",
          "name": "",
          "type": "uint256"
        }
      ],
      "stateMutability": "view",
      "type": "function",
      "constant": true
    },
    {
      "inputs": [
        {
          "internalType": "uint256",
          "name": "_allergytId",
          "type": "uint256"
        },
        {
          "internalType": "string",
          "name": "_allergyName",
          "type": "string"
        },
        {
          "internalType": "string",
          "name": "_observation",
          "type": "string"
        },
        {
          "internalType": "uint256",
          "name": "_patientId",
          "type": "uint256"
        }
      ],
      "name": "addAllergy",
      "outputs": [],
      "stateMutability": "nonpayable",
      "type": "function"
    },
    {
      "inputs": [
        {
          "internalType": "uint256",
          "name": "_patientId",
          "type": "uint256"
        }
      ],
      "name": "allergyCountOfPatient",
      "outputs": [
        {
          "internalType": "uint256",
          "name": "",
          "type": "uint256"
        }
      ],
      "stateMutability": "view",
      "type": "function",
      "constant": true
    },
    {
      "inputs": [
        {
          "internalType": "uint256",
          "name": "_patientId",
          "type": "uint256"
        }
      ],
      "name": "getAllergies",
      "outputs": [
        {
          "internalType": "uint256[]",
          "name": "",
          "type": "uint256[]"
        }
      ],
      "stateMutability": "view",
      "type": "function",
      "constant": true
    },
    {
      "inputs": [
        {
          "internalType": "uint256",
          "name": "_allergyId",
          "type": "uint256"
        }
      ],
      "name": "getAllergy",
      "outputs": [
        {
          "internalType": "uint256",
          "name": "",
          "type": "uint256"
        },
        {
          "internalType": "string",
          "name": "",
          "type": "string"
        },
        {
          "internalType": "string",
          "name": "",
          "type": "string"
        },
        {
          "internalType": "uint256",
          "name": "",
          "type": "uint256"
        }
      ],
      "stateMutability": "view",
      "type": "function",
      "constant": true
    },
    {
      "inputs": [
        {
          "internalType": "uint256",
          "name": "_patientId",
          "type": "uint256"
        },
        {
          "internalType": "uint256",
          "name": "_docExaminationId",
          "type": "uint256"
        },
        {
          "internalType": "string",
          "name": "_codeExaminationName",
          "type": "string"
        },
        {
          "internalType": "string",
          "name": "_examinationName",
          "type": "string"
        },
        {
          "internalType": "string",
          "name": "_orderedDate",
          "type": "string"
        }
      ],
      "name": "orderAnExamination",
      "outputs": [],
      "stateMutability": "nonpayable",
      "type": "function"
    },
    {
      "inputs": [
        {
          "internalType": "uint256",
          "name": "_patientId",
          "type": "uint256"
        }
      ],
      "name": "allExaminationOrderToPatient",
      "outputs": [
        {
          "internalType": "uint256[]",
          "name": "",
          "type": "uint256[]"
        }
      ],
      "stateMutability": "view",
      "type": "function",
      "constant": true
    },
    {
      "inputs": [
        {
          "internalType": "uint256",
          "name": "_docExaminationId",
          "type": "uint256"
        }
      ],
      "name": "getExaminationOrder",
      "outputs": [
        {
          "internalType": "string",
          "name": "",
          "type": "string"
        },
        {
          "internalType": "string",
          "name": "",
          "type": "string"
        },
        {
          "internalType": "string",
          "name": "",
          "type": "string"
        },
        {
          "internalType": "uint256",
          "name": "",
          "type": "uint256"
        }
      ],
      "stateMutability": "view",
      "type": "function",
      "constant": true
    },
    {
      "inputs": [
        {
          "internalType": "uint256",
          "name": "_docResultId",
          "type": "uint256"
        },
        {
          "internalType": "uint256",
          "name": "_docExaminationId",
          "type": "uint256"
        },
        {
          "internalType": "string",
          "name": "_resultCode",
          "type": "string"
        },
        {
          "internalType": "string",
          "name": "_codeResultName",
          "type": "string"
        },
        {
          "internalType": "string",
          "name": "_observationDate",
          "type": "string"
        }
      ],
      "name": "addResultOfOrderExamination",
      "outputs": [],
      "stateMutability": "nonpayable",
      "type": "function"
    },
    {
      "inputs": [
        {
          "internalType": "uint256",
          "name": "_docExaminationId",
          "type": "uint256"
        }
      ],
      "name": "getResultOfOrderExamination",
      "outputs": [
        {
          "internalType": "uint256",
          "name": "",
          "type": "uint256"
        },
        {
          "internalType": "string",
          "name": "",
          "type": "string"
        },
        {
          "internalType": "string",
          "name": "",
          "type": "string"
        },
        {
          "internalType": "string",
          "name": "",
          "type": "string"
        }
      ],
      "stateMutability": "view",
      "type": "function",
      "constant": true
    },
    {
      "inputs": [
        {
          "internalType": "uint256",
          "name": "_docResultId",
          "type": "uint256"
        },
        {
          "internalType": "string",
          "name": "_componentName",
          "type": "string"
        },
        {
          "internalType": "string",
          "name": "_labName",
          "type": "string"
        },
        {
          "internalType": "string",
          "name": "_resultValue",
          "type": "string"
        },
        {
          "internalType": "string",
          "name": "_resultObservation",
          "type": "string"
        }
      ],
      "name": "addResultDetailExamination",
      "outputs": [],
      "stateMutability": "nonpayable",
      "type": "function"
    },
    {
      "inputs": [
        {
          "internalType": "uint256",
          "name": "_docResultId",
          "type": "uint256"
        }
      ],
      "name": "getResultDetailExamination",
      "outputs": [
        {
          "internalType": "string",
          "name": "",
          "type": "string"
        },
        {
          "internalType": "string",
          "name": "",
          "type": "string"
        },
        {
          "internalType": "string",
          "name": "",
          "type": "string"
        },
        {
          "internalType": "string",
          "name": "",
          "type": "string"
        }
      ],
      "stateMutability": "view",
      "type": "function",
      "constant": true
    }
  ],
  "bytecode": "0x60806040526000805463ffffffff60a01b191681556007805463ffffffff1916905560085534801561003057600080fd5b50600080546001600160a01b03191633178082556040516001600160a01b039190911691907f8be0079c531659141344cd1fd0a4f28419497f9722a3daafe3b4186f6b6457e0908290a3613cb0806100896000396000f3fe608060405234801561001057600080fd5b50600436106102265760003560e01c80638da5cb5b11610130578063b8c6b1cf116100b8578063da94497b1161007c578063da94497b14610534578063f2fde38b1461055d578063fa4bf01514610570578063fea6c69114610583578063ff8e704f1461059657610226565b8063b8c6b1cf146104b6578063bbaf8319146104c9578063c73ee74b146104ec578063c9a2e17a146104ff578063d878e8f81461051257610226565b80639852f377116100ff5780639852f3771461046d5780639c781b5614610480578063ac54ddfe14610488578063b3c2bea41461049b578063b598e394146104ae57610226565b80638da5cb5b1461040c5780638f32d59b1461042157806393119a831461042957806397f6c84c1461044d57610226565b806353b73144116101b35780636efb1b84116101825780636efb1b84146103a3578063715018a6146103c657806371df345a146103ce5780637354f8d8146103d657806375cccc05146103f957610226565b806353b73144146103375780635953e7b31461034a57806363ac231b1461036d5780636c5fb7391461039057610226565b80631f524140116101fa5780631f524140146102a057806321ae7ae8146102c05780632da40f28146102e457806333aa1263146103045780634c8188781461032457610226565b806230e6d31461022b5780630370f59214610240578063099ddfbd1461026d5780631b4ea9391461028d575b600080fd5b61023e610239366004613116565b6105a9565b005b61025361024e36600461342d565b610817565b604051610264959493929190613b3e565b60405180910390f35b61028061027b3660046130fa565b610a06565b6040516102649190613ad0565b61023e61029b3660046133a1565b610a1c565b6102b36102ae366004613599565b610b4d565b604051610264919061370b565b6102d36102ce36600461342d565b610b90565b6040516102649594939291906138cf565b6102f76102f23660046130fa565b610df0565b6040516102649190613b8f565b61031761031236600461342d565b610e08565b6040516102649190613adf565b61023e61033236600461352a565b610e1a565b61023e61034536600461355d565b610f55565b61035d61035836600461342d565b611023565b604051610264949392919061376c565b61038061037b36600461342d565b6112f6565b6040516102649493929190613b13565b61023e61039e366004613478565b611486565b6103b66103b136600461342d565b611526565b6040516102649493929190613bd1565b61023e611709565b610317611777565b6103e96103e436600461342d565b61177d565b6040516102649493929190613ae8565b61031761040736600461342d565b6117fc565b61041461180e565b60405161026491906136b3565b6102b361181d565b61043c61043736600461342d565b61182e565b604051610264959493929190613bf0565b61046061045b36600461342d565b61194c565b60405161026491906136c7565b61035d61047b36600461342d565b611a2c565b6102f7611aaf565b6102b3610496366004613445565b611abb565b61023e6104a9366004613255565b611cae565b6102f7611e8f565b6104606104c436600461342d565b611ea2565b6104dc6104d736600461342d565b611f5b565b6040516102649493929190613884565b6103806104fa36600461342d565b6120d3565b61035d61050d366004613599565b612234565b61052561052036600461342d565b612334565b60405161026493929190613729565b61054761054236600461342d565b612506565b6040516102649a999897969594939291906137c4565b61023e61056b3660046130fa565b6129c3565b61046061057e36600461342d565b6129f3565b61023e61059136600461355d565b612aac565b61023e6105a43660046131ad565b612c15565b6105b161181d565b6105d65760405162461bcd60e51b81526004016105cd90613a9b565b60405180910390fd5b6001600160a01b03811660009081526003602052604090205461ffff16156106105760405162461bcd60e51b81526004016105cd90613a4b565b6000546106309063ffffffff600160a01b909104811690600190612ca016565b6000805463ffffffff60a01b1916600160a01b63ffffffff938416810291909117808355919261066a9291909104811690600190612cd516565b6040805160808101825263ffffffff838116825260208083018a81529383018990526060830188905260018054808201825560009190915283517fb10e2d527612073b26eecdfd717e6a320cf44b4afac2b0732d9fcbe2b7fa0cf66004909202918201805463ffffffff1916919094161783559351805195965092949193610719937fb10e2d527612073b26eecdfd717e6a320cf44b4afac2b0732d9fcbe2b7fa0cf790910192910190612fe9565b5060408201518051610735916002840191602090910190612fe9565b5060608201518051610751916003840191602090910190612fe9565b50505063ffffffff818116600090815260026020908152604080832080546001600160a01b0319166001600160a01b038816908117909155835260039091529020546107a79161ffff90911690600190612d1716565b6001600160a01b03831660009081526003602052604090819020805461ffff191661ffff9390931692909217909155517ff7e5f435fdefaa9ef5ed1e9b2e2bf9b6efb0d3dafa1c5b157f35b13522608dfc9061080890839088908890613ba0565b60405180910390a15050505050565b600a818154811061082457fe5b9060005260206000209060050201600091509050806000015490806001015490806002018054600181600116156101000203166002900480601f0160208091040260200160405190810160405280929190818152602001828054600181600116156101000203166002900480156108dc5780601f106108b1576101008083540402835291602001916108dc565b820191906000526020600020905b8154815290600101906020018083116108bf57829003601f168201915b5050505060038301805460408051602060026001851615610100026000190190941693909304601f810184900484028201840190925281815294959493509083018282801561096c5780601f106109415761010080835404028352916020019161096c565b820191906000526020600020905b81548152906001019060200180831161094f57829003601f168201915b5050505060048301805460408051602060026001851615610100026000190190941693909304601f81018490048402820184019092528181529495949350908301828280156109fc5780601f106109d1576101008083540402835291602001916109fc565b820191906000526020600020905b8154815290600101906020018083116109df57829003601f168201915b5050505050905085565b60036020526000908152604090205461ffff1681565b3360008181526003602052604090205461ffff16600114610a4f5760405162461bcd60e51b81526004016105cd90613921565b60008281526012602052604090205461ffff1615610a7f5760405162461bcd60e51b81526004016105cd906139b7565b604080516080810182528681526020808201879052818301869052606082018590526000858152600e8252929092208151805192939192610ac39284920190612fe9565b506020828101518051610adc9260018501920190612fe9565b5060408201518051610af8916002840191602090910190612fe9565b5060609190910151600390910155600082815260126020526040902054610b249061ffff166001612d17565b600092835260126020526040909220805461ffff191661ffff9093169290921790915550505050565b6007546000908190610b6b9063ffffffff90811690600190612cd516565b63ffffffff168363ffffffff161115610b8657506000610b8a565b5060015b92915050565b606060006060806000600b8681548110610ba657fe5b90600052602060002090600a0201600501600b8781548110610bc457fe5b90600052602060002090600a020160060154600b8881548110610be357fe5b90600052602060002090600a0201600701600b8981548110610c0157fe5b90600052602060002090600a0201600801600b8a81548110610c1f57fe5b60009182526020918290206009600a909202010154855460408051601f600260001961010060018716150201909416939093049283018590048502810185019091528181529192879190830182828015610cba5780601f10610c8f57610100808354040283529160200191610cba565b820191906000526020600020905b815481529060010190602001808311610c9d57829003601f168201915b5050865460408051602060026001851615610100026000190190941693909304601f8101849004840282018401909252818152959a5088945092508401905082828015610d485780601f10610d1d57610100808354040283529160200191610d48565b820191906000526020600020905b815481529060010190602001808311610d2b57829003601f168201915b5050855460408051602060026001851615610100026000190190941693909304601f810184900484028201840190925281815295985087945092508401905082828015610dd65780601f10610dab57610100808354040283529160200191610dd6565b820191906000526020600020905b815481529060010190602001808311610db957829003601f168201915b505050505091509450945094509450945091939590929450565b60046020526000908152604090205463ffffffff1681565b60009081526010602052604090205490565b3360008181526003602052604090205461ffff16600114610e4d5760405162461bcd60e51b81526004016105cd90613921565b60408051608081018252868152602080820187815292820186905260608201859052600c8054600181018255600091909152825160049091027fdf6966c971051c3d54ec59162606531493a51404a002842f56009d7e5cf4a8c781019182559351805193949193610ee7937fdf6966c971051c3d54ec59162606531493a51404a002842f56009d7e5cf4a8c8909301929190910190612fe9565b5060408201518051610f03916002840191602090910190612fe9565b5060609190910151600390910155600854610f1f906001612d43565b600855600082815260116020526040902054610f3c906001612d43565b6000928352601160205260409092209190915550505050565b3360008181526003602052604090205461ffff16600114610f885760405162461bcd60e51b81526004016105cd90613921565b6040805160a0810182528781526020808201888152828401888152606084018890526080840187905260008a81526006845294909420835181559051600182015592518051929392610fe09260028501920190612fe9565b5060608201518051610ffc916003840191602090910190612fe9565b5060808201518051611018916004840191602090910190612fe9565b505050505050505050565b606080606080600b858154811061103657fe5b90600052602060002090600a0201600101600b868154811061105457fe5b90600052602060002090600a0201600201600b878154811061107257fe5b90600052602060002090600a0201600301600b888154811061109057fe5b90600052602060002090600a0201600401838054600181600116156101000203166002900480601f0160208091040260200160405190810160405280929190818152602001828054600181600116156101000203166002900480156111365780601f1061110b57610100808354040283529160200191611136565b820191906000526020600020905b81548152906001019060200180831161111957829003601f168201915b5050865460408051602060026001851615610100026000190190941693909304601f8101849004840282018401909252818152959950889450925084019050828280156111c45780601f10611199576101008083540402835291602001916111c4565b820191906000526020600020905b8154815290600101906020018083116111a757829003601f168201915b5050855460408051602060026001851615610100026000190190941693909304601f8101849004840282018401909252818152959850879450925084019050828280156112525780601f1061122757610100808354040283529160200191611252565b820191906000526020600020905b81548152906001019060200180831161123557829003601f168201915b5050845460408051602060026001851615610100026000190190941693909304601f8101849004840282018401909252818152959750869450925084019050828280156112e05780601f106112b5576101008083540402835291602001916112e0565b820191906000526020600020905b8154815290600101906020018083116112c357829003601f168201915b5050505050905093509350935093509193509193565b6000606080600084600c868154811061130b57fe5b9060005260206000209060040201600101600c878154811061132957fe5b9060005260206000209060040201600201600c888154811061134757fe5b600091825260209182902060036004909202010154835460408051601f6002600019610100600187161502019094169390930492830185900485028101850190915281815291928591908301828280156113e25780601f106113b7576101008083540402835291602001916113e2565b820191906000526020600020905b8154815290600101906020018083116113c557829003601f168201915b5050855460408051602060026001851615610100026000190190941693909304601f8101849004840282018401909252818152959850879450925084019050828280156114705780601f1061144557610100808354040283529160200191611470565b820191906000526020600020905b81548152906001019060200180831161145357829003601f168201915b5050505050915093509350935093509193509193565b3360008181526003602052604090205461ffff166001146114b95760405162461bcd60e51b81526004016105cd90613921565b6040805160a0810182528781526020808201888152828401889052606083018790526080830186905260008a81526005835293909320825181559251805192939261150a9260018501920190612fe9565b5060408201518051610fe0916002840191602090910190612fe9565b6001818154811061153357fe5b600091825260209182902060049091020180546001808301805460408051601f600260001996851615610100029690960190931694909404918201879004870284018701905280835263ffffffff90931695509293909291908301828280156115dd5780601f106115b2576101008083540402835291602001916115dd565b820191906000526020600020905b8154815290600101906020018083116115c057829003601f168201915b50505060028085018054604080516020601f600019610100600187161502019094169590950492830185900485028101850190915281815295969594509092509083018282801561166f5780601f106116445761010080835404028352916020019161166f565b820191906000526020600020905b81548152906001019060200180831161165257829003601f168201915b5050505060038301805460408051602060026001851615610100026000190190941693909304601f81018490048402820184019092528181529495949350908301828280156116ff5780601f106116d4576101008083540402835291602001916116ff565b820191906000526020600020905b8154815290600101906020018083116116e257829003601f168201915b5050505050905084565b61171161181d565b61172d5760405162461bcd60e51b81526004016105cd90613a9b565b600080546040516001600160a01b03909116907f8be0079c531659141344cd1fd0a4f28419497f9722a3daafe3b4186f6b6457e0908390a3600080546001600160a01b0319169055565b60085481565b600081815260066020908152604080832080546002808301805485516001821615610100026000190190911692909204601f8101879004870283018701909552848252606095869586959293600384019360040192909185918301828280156111c45780601f10611199576101008083540402835291602001916111c4565b60009081526011602052604090205490565b6000546001600160a01b031690565b6000546001600160a01b0316331490565b6009818154811061183b57fe5b600091825260209182902060059091020180546001808301805460408051601f600260001996851615610100029690960190931694909404918201879004870284018701905280835263ffffffff90931695509293909291908301828280156118e55780601f106118ba576101008083540402835291602001916118e5565b820191906000526020600020905b8154815290600101906020018083116118c857829003601f168201915b50505060028085018054604080516020601f60001961010060018716150201909416959095049283018590048502810185019091528181529596959450909250908301828280156108dc5780601f106108b1576101008083540402835291602001916108dc565b600081815260116020526040902054606090819067ffffffffffffffff8111801561197657600080fd5b506040519080825280602002602001820160405280156119a0578160200160208202803683370190505b5090506000805b600c54811015611a235784600c82815481106119bf57fe5b9060005260206000209060040201600301541415611a1b57600c81815481106119e457fe5b906000526020600020906004020160000154838381518110611a0257fe5b6020908102919091010152611a18826001612d43565b91505b6001016119a7565b50909392505050565b6000818152600560209081526040918290206001808201805485516002938216156101000260001901909116839004601f81018690048602820186019096528581526060958695869586958101936003820193600490920192909186918301828280156111365780601f1061110b57610100808354040283529160200191611136565b60075463ffffffff1681565b3360008181526003602052604081205490919061ffff16600114611af15760405162461bcd60e51b81526004016105cd90613921565b60005b600b54811015611c8f5786600b8281548110611b0c57fe5b90600052602060002090600a020160090154148015611b93575085604051602001611b379190613659565b60405160208183030381529060405280519060200120600b8281548110611b5a57fe5b90600052602060002090600a0201600001604051602001611b7b9190613675565b60405160208183030381529060405280519060200120145b8015611c07575084604051602001611bab9190613659565b60405160208183030381529060405280519060200120600b8281548110611bce57fe5b90600052602060002090600a0201600101604051602001611bef9190613675565b60405160208183030381529060405280519060200120145b15611c8757600b8181548110611c1957fe5b90600052602060002090600a020160080184604051602001611c3c929190613681565b604051602081830303815290604052600b8281548110611c5857fe5b90600052602060002090600a02016008019080519060200190611c7c929190612fe9565b506001925050611ca5565b600101611af4565b600b54811415611ca3576000925050611ca5565b505b50949350505050565b3360008181526003602052604090205461ffff16600114611ce15760405162461bcd60e51b81526004016105cd90613921565b60408051610140810182528c815260208082018d90529181018b9052606081018a90526080810189905260a0810188905260c0810187905260e0810186905261010081018590526101208101849052600b8054600181018255600091909152815180519293600a9092027f0175b7a638427703f0dbe7bb9bbf987a2551717b34e79f33b5b1008d1fa01db90192611d7b9284920190612fe9565b506020828101518051611d949260018501920190612fe9565b5060408201518051611db0916002840191602090910190612fe9565b5060608201518051611dcc916003840191602090910190612fe9565b5060808201518051611de8916004840191602090910190612fe9565b5060a08201518051611e04916005840191602090910190612fe9565b5060c0820151600682015560e08201518051611e2a916007840191602090910190612fe9565b506101008201518051611e47916008840191602090910190612fe9565b506101209190910151600990910155600082815260106020526040902054611e70906001612d43565b6000928352601060205260409092209190915550505050505050505050565b600054600160a01b900463ffffffff1681565b6000818152600f6020526040902054606090819067ffffffffffffffff81118015611ecc57600080fd5b50604051908082528060200260200182016040528015611ef6578160200160208202803683370190505b5090506000805b600a54811015611a235784600a8281548110611f1557fe5b9060005260206000209060050201600101541415611f535780838381518110611f3a57fe5b6020908102919091010152611f50826001612d43565b91505b600101611efd565b60608060606000600a8581548110611f6f57fe5b9060005260206000209060050201600201600a8681548110611f8d57fe5b9060005260206000209060050201600301600a8781548110611fab57fe5b9060005260206000209060050201600401600a8881548110611fc957fe5b906000526020600020906005020160010154838054600181600116156101000203166002900480601f0160208091040260200160405190810160405280929190818152602001828054600181600116156101000203166002900480156120705780601f1061204557610100808354040283529160200191612070565b820191906000526020600020905b81548152906001019060200180831161205357829003601f168201915b5050865460408051602060026001851615610100026000190190941693909304601f8101849004840282018401909252818152959950889450925084019050828280156113e25780601f106113b7576101008083540402835291602001916113e2565b600c81815481106120e057fe5b9060005260206000209060040201600091509050806000015490806001018054600181600116156101000203166002900480601f0160208091040260200160405190810160405280929190818152602001828054600181600116156101000203166002900480156121925780601f1061216757610100808354040283529160200191612192565b820191906000526020600020905b81548152906001019060200180831161217557829003601f168201915b50505060028085018054604080516020601f60001961010060018716150201909416959095049283018590048502810185019091528181529596959450909250908301828280156122245780601f106121f957610100808354040283529160200191612224565b820191906000526020600020905b81548152906001019060200180831161220757829003601f168201915b5050505050908060030154905084565b60608060608060098563ffffffff168154811061224d57fe5b906000526020600020906005020160010160098663ffffffff168154811061227157fe5b906000526020600020906005020160020160098763ffffffff168154811061229557fe5b906000526020600020906005020160030160098863ffffffff16815481106122b957fe5b9060005260206000209060050201600401838054600181600116156101000203166002900480601f0160208091040260200160405190810160405280929190818152602001828054600181600116156101000203166002900480156111365780601f1061110b57610100808354040283529160200191611136565b6000818152600e60209081526040918290208054835160026001808416156101000260001901909316819004601f81018690048602830186019096528582526060958695869594850193928501929185918301828280156123d65780601f106123ab576101008083540402835291602001916123d6565b820191906000526020600020905b8154815290600101906020018083116123b957829003601f168201915b5050855460408051602060026001851615610100026000190190941693909304601f8101849004840282018401909252818152959850879450925084019050828280156124645780601f1061243957610100808354040283529160200191612464565b820191906000526020600020905b81548152906001019060200180831161244757829003601f168201915b5050845460408051602060026001851615610100026000190190941693909304601f8101849004840282018401909252818152959750869450925084019050828280156124f25780601f106124c7576101008083540402835291602001916124f2565b820191906000526020600020905b8154815290600101906020018083116124d557829003601f168201915b505050505090509250925092509193909250565b600b818154811061251357fe5b6000918252602091829020600a919091020180546040805160026001841615610100026000190190931692909204601f8101859004850283018501909152808252919350918391908301828280156125ac5780601f10612581576101008083540402835291602001916125ac565b820191906000526020600020905b81548152906001019060200180831161258f57829003601f168201915b505050505090806001018054600181600116156101000203166002900480601f01602080910402602001604051908101604052809291908181526020018280546001816001161561010002031660029004801561264a5780601f1061261f5761010080835404028352916020019161264a565b820191906000526020600020905b81548152906001019060200180831161262d57829003601f168201915b50505060028085018054604080516020601f60001961010060018716150201909416959095049283018590048502810185019091528181529596959450909250908301828280156126dc5780601f106126b1576101008083540402835291602001916126dc565b820191906000526020600020905b8154815290600101906020018083116126bf57829003601f168201915b5050505060038301805460408051602060026001851615610100026000190190941693909304601f810184900484028201840190925281815294959493509083018282801561276c5780601f106127415761010080835404028352916020019161276c565b820191906000526020600020905b81548152906001019060200180831161274f57829003601f168201915b5050505060048301805460408051602060026001851615610100026000190190941693909304601f81018490048402820184019092528181529495949350908301828280156127fc5780601f106127d1576101008083540402835291602001916127fc565b820191906000526020600020905b8154815290600101906020018083116127df57829003601f168201915b5050505060058301805460408051602060026001851615610100026000190190941693909304601f810184900484028201840190925281815294959493509083018282801561288c5780601f106128615761010080835404028352916020019161288c565b820191906000526020600020905b81548152906001019060200180831161286f57829003601f168201915b50505050600683015460078401805460408051602060026001851615610100026000190190941693909304601f810184900484028201840190925281815295969395939450908301828280156129235780601f106128f857610100808354040283529160200191612923565b820191906000526020600020905b81548152906001019060200180831161290657829003601f168201915b5050505060088301805460408051602060026001851615610100026000190190941693909304601f81018490048402820184019092528181529495949350908301828280156129b35780601f10612988576101008083540402835291602001916129b3565b820191906000526020600020905b81548152906001019060200180831161299657829003601f168201915b505050505090806009015490508a565b6129cb61181d565b6129e75760405162461bcd60e51b81526004016105cd90613a9b565b6129f081612d68565b50565b600081815260106020526040902054606090819067ffffffffffffffff81118015612a1d57600080fd5b50604051908082528060200260200182016040528015612a47578160200160208202803683370190505b5090506000805b600b54811015611a235784600b8281548110612a6657fe5b90600052602060002090600a0201600901541415612aa45780838381518110612a8b57fe5b6020908102919091010152612aa1826001612d43565b91505b600101612a4e565b3360008181526003602052604090205461ffff16600114612adf5760405162461bcd60e51b81526004016105cd90613921565b6040805160a08101825287815260208082018881529282018781526060830187905260808301869052600a8054600181018255600091909152835160059091027fc65a7bb8d6351c1cf70c95a316cc6a92839c986682d98bc35f958f4883f9d2a8810191825594517fc65a7bb8d6351c1cf70c95a316cc6a92839c986682d98bc35f958f4883f9d2a98601559051805193949193612ba6937fc65a7bb8d6351c1cf70c95a316cc6a92839c986682d98bc35f958f4883f9d2aa909301929190910190612fe9565b5060608201518051612bc2916003840191602090910190612fe9565b5060808201518051612bde916004840191602090910190612fe9565b5050506000868152600f6020526040902054612bfb906001612d43565b6000968752600f6020526040909620959095555050505050565b3360008181526003602052604090205461ffff16600114612c485760405162461bcd60e51b81526004016105cd90613921565b612c5485858585612de9565b6007547f975cf2b33de9b1a07500492e92dbb084414a16a398d6f61c4272257c6bc2dc0090612c8f9063ffffffff90811690600190612cd516565b868660405161080893929190613ba0565b600082820163ffffffff8085169082161015612cce5760405162461bcd60e51b81526004016105cd90613a14565b9392505050565b6000612cce83836040518060400160405280601e81526020017f536166654d6174683a207375627472616374696f6e206f766572666c6f770000815250612fb0565b600082820161ffff8085169082161015612cce5760405162461bcd60e51b81526004016105cd90613a14565b600082820183811015612cce5760405162461bcd60e51b81526004016105cd90613a14565b6001600160a01b038116612d8e5760405162461bcd60e51b81526004016105cd90613971565b600080546040516001600160a01b03808516939216917f8be0079c531659141344cd1fd0a4f28419497f9722a3daafe3b4186f6b6457e091a3600080546001600160a01b0319166001600160a01b0392909216919091179055565b600754612e029063ffffffff90811690600190612ca016565b6007805463ffffffff191663ffffffff9283161790819055600091612e2d91811690600190612cd516565b6040805160a08101825263ffffffff838116825260208083018a815293830189905260608301889052608083018790526009805460018101825560009190915283517f6e1540171b6c0c960b71a7020d9f60077f6af931a8bbf590da0223dacf75c7af6005909202918201805463ffffffff1916919094161783559351805195965092949193612ee4937f6e1540171b6c0c960b71a7020d9f60077f6af931a8bbf590da0223dacf75c7b090910192910190612fe9565b5060408201518051612f00916002840191602090910190612fe9565b5060608201518051612f1c916003840191602090910190612fe9565b5060808201518051612f38916004840191602090910190612fe9565b50505063ffffffff8082166000908152600d6020908152604080832080546001600160a01b0319163390811790915583526004909152902054612f829190811690600190612ca016565b336000908152600460205260409020805463ffffffff191663ffffffff929092169190911790555050505050565b60008363ffffffff168363ffffffff1611158290612fe15760405162461bcd60e51b81526004016105cd9190613716565b505050900390565b828054600181600116156101000203166002900490600052602060002090601f016020900481019282601f1061302a57805160ff1916838001178555613057565b82800160010185558215613057579182015b8281111561305757825182559160200191906001019061303c565b50613063929150613067565b5090565b5b808211156130635760008155600101613068565b600082601f83011261308c578081fd5b813567ffffffffffffffff808211156130a3578283fd5b604051601f8301601f1916810160200182811182821017156130c3578485fd5b6040528281529250828483016020018610156130de57600080fd5b8260208601602083013760006020848301015250505092915050565b60006020828403121561310b578081fd5b8135612cce81613c65565b6000806000806080858703121561312b578283fd5b843567ffffffffffffffff80821115613142578485fd5b61314e8883890161307c565b95506020870135915080821115613163578485fd5b61316f8883890161307c565b94506040870135915080821115613184578384fd5b506131918782880161307c565b92505060608501356131a281613c65565b939692955090935050565b600080600080608085870312156131c2578384fd5b843567ffffffffffffffff808211156131d9578586fd5b6131e58883890161307c565b955060208701359150808211156131fa578485fd5b6132068883890161307c565b9450604087013591508082111561321b578384fd5b6132278883890161307c565b9350606087013591508082111561323c578283fd5b506132498782880161307c565b91505092959194509250565b6000806000806000806000806000806101408b8d031215613274578586fd5b8a3567ffffffffffffffff8082111561328b578788fd5b6132978e838f0161307c565b9b5060208d01359150808211156132ac578788fd5b6132b88e838f0161307c565b9a5060408d01359150808211156132cd578788fd5b6132d98e838f0161307c565b995060608d01359150808211156132ee578788fd5b6132fa8e838f0161307c565b985060808d013591508082111561330f578788fd5b61331b8e838f0161307c565b975060a08d0135915080821115613330578687fd5b61333c8e838f0161307c565b965060c08d0135955060e08d0135915080821115613358578485fd5b6133648e838f0161307c565b94506101008d013591508082111561337a578384fd5b506133878d828e0161307c565b9250506101208b013590509295989b9194979a5092959850565b600080600080608085870312156133b6578384fd5b843567ffffffffffffffff808211156133cd578586fd5b6133d98883890161307c565b955060208701359150808211156133ee578485fd5b6133fa8883890161307c565b9450604087013591508082111561340f578384fd5b5061341c8782880161307c565b949793965093946060013593505050565b60006020828403121561343e578081fd5b5035919050565b6000806000806080858703121561345a578384fd5b84359350602085013567ffffffffffffffff808211156131fa578485fd5b600080600080600060a0868803121561348f578081fd5b85359450602086013567ffffffffffffffff808211156134ad578283fd5b6134b989838a0161307c565b955060408801359150808211156134ce578283fd5b6134da89838a0161307c565b945060608801359150808211156134ef578283fd5b6134fb89838a0161307c565b93506080880135915080821115613510578283fd5b5061351d8882890161307c565b9150509295509295909350565b6000806000806080858703121561353f578384fd5b84359350602085013567ffffffffffffffff808211156133ee578485fd5b600080600080600060a08688031215613574578283fd5b8535945060208601359350604086013567ffffffffffffffff808211156134ce578485fd5b6000602082840312156135aa578081fd5b813563ffffffff81168114612cce578182fd5b600081518084526135d5816020860160208601613c35565b601f01601f19169290920160200192915050565b60008154600180821660008114613607576001811461361e57613650565b60ff198316865260028304607f1686019350613650565b600283048560005260208060002060005b838110156136485781548a82015290850190820161362f565b505050860193505b50505092915050565b6000825161366b818460208701613c35565b9190910192915050565b6000612cce82846135e9565b600061368d82856135e9565b600160fd1b815283516136a7816001840160208801613c35565b01600101949350505050565b6001600160a01b0391909116815260200190565b6020808252825182820181905260009190848201906040850190845b818110156136ff578351835292840192918401916001016136e3565b50909695505050505050565b901515815260200190565b600060208252612cce60208301846135bd565b60006060825261373c60608301866135bd565b828103602084015261374e81866135bd565b9050828103604084015261376281856135bd565b9695505050505050565b60006080825261377f60808301876135bd565b828103602084015261379181876135bd565b905082810360408401526137a581866135bd565b905082810360608401526137b981856135bd565b979650505050505050565b60006101408083526137d88184018e6135bd565b905082810360208401526137ec818d6135bd565b90508281036040840152613800818c6135bd565b90508281036060840152613814818b6135bd565b90508281036080840152613828818a6135bd565b905082810360a084015261383c81896135bd565b90508660c084015282810360e084015261385681876135bd565b905082810361010084015261386b81866135bd565b915050826101208301529b9a5050505050505050505050565b60006080825261389760808301876135bd565b82810360208401526138a981876135bd565b905082810360408401526138bd81866135bd565b91505082606083015295945050505050565b600060a082526138e260a08301886135bd565b86602084015282810360408401526138fa81876135bd565b9050828103606084015261390e81866135bd565b9150508260808301529695505050505050565b60208082526030908201527f53656e646572206e6f7420617574686f72697a656420203a3a3a20497420736860408201526f37bab6321031329030903237b1ba37b960811b606082015260800190565b60208082526026908201527f4f776e61626c653a206e6577206f776e657220697320746865207a65726f206160408201526564647265737360d01b606082015260800190565b60208082526039908201527f546869732070617469656e742068617320616c7265616479206e6f6e2076617260408201527f6961626c65206578616d696e6174696f6e2073657474696e6700000000000000606082015260800190565b6020808252601b908201527f536166654d6174683a206164646974696f6e206f766572666c6f770000000000604082015260600190565b60208082526030908201527f53656e646572206e6f7420617574686f72697a65642e20497420616c7265616460408201526f1e481a185cc8185b881858d8dbdd5b9d60821b606082015260800190565b6020808252818101527f4f776e61626c653a2063616c6c6572206973206e6f7420746865206f776e6572604082015260600190565b61ffff91909116815260200190565b90815260200190565b600085825260806020830152613b0160808301866135bd565b82810360408401526137a581866135bd565b600085825260806020830152613b2c60808301866135bd565b82810360408401526138bd81866135bd565b600086825285602083015260a06040830152613b5d60a08301866135bd565b8281036060840152613b6f81866135bd565b90508281036080840152613b8381856135bd565b98975050505050505050565b63ffffffff91909116815260200190565b600063ffffffff8516825260606020830152613bbf60608301856135bd565b828103604084015261376281856135bd565b600063ffffffff8616825260806020830152613b0160808301866135bd565b600063ffffffff8716825260a06020830152613c0f60a08301876135bd565b8281036040840152613c2181876135bd565b90508281036060840152613b6f81866135bd565b60005b83811015613c50578181015183820152602001613c38565b83811115613c5f576000848401525b50505050565b6001600160a01b03811681146129f057600080fdfea26469706673582212201f9d28b23522308332c3093fe8d972f12b1c021eb68171bdf74479f61dc072e364736f6c63430007010033",
  "immutableReferences": {},
  "source": "// SPDX-License-Identifier: MIT\r\npragma solidity >=0.6.0 <0.8.0;\r\n//pragma solidity ^0.6.0;\r\npragma experimental ABIEncoderV2;\r\n\r\nimport \"./SafeMath.sol\";\r\nimport \"./Doctor.sol\";\r\nimport \"./NonVariableExamination.sol\";\r\nimport \"./SpecialtyMedicine.sol\";\r\nimport \"./Allergy.sol\";\r\nimport \"./Examination.sol\";\r\n\r\ncontract Patient is Doctor, NonVariableExamination, SpecialtyMedicine, Allergy, Examination {\r\n\r\n    using SafeMath for uint256;\r\n    using SafeMath32 for uint32;\r\n    using SafeMath16 for uint16;\r\n\r\n    uint32 public counterPatient = 0;\r\n    uint public counterAllergy = 0;\r\n\r\n    struct PatientInfo {\r\n        uint32 patientId;\r\n        string firstName;\r\n        string lastName;\r\n        string gender;\r\n        string addressOfPatient;\r\n    }\r\n\r\n    PatientInfo[] public patients;\r\n    ExaminationInfo[] public orderExamination;\r\n    SpecialtyMedicineInfo[] public allSpecialtyMedicine;\r\n    AllergyInfo[] public allAllergies;\r\n\r\n    event NewPatient(uint32 patientId, string firstName, string lastName);\r\n\r\n    mapping (uint32 => address) patientCreatedBy;\r\n    mapping (uint => NonVariableExaminationInfo) nonVariableExaminationOfPatient; // keep a non variable examination\r\n    mapping (uint => uint) orderExaminationToPatientCount;\r\n    mapping (uint => uint) specialtyMedicineToPatientCount;\r\n    mapping (uint => uint) allergyPatientCount;\r\n    mapping (uint => uint16) nonVariableExaminationOfPatientCount;\r\n\r\n    function _createPatient(string memory _firstName,\r\n        string memory _lastName,\r\n        string memory _gender,\r\n        string memory _addressOfPatient) private {\r\n        counterPatient = counterPatient.add(1);\r\n        uint32 idPatient = counterPatient.sub(1);\r\n        patients.push(PatientInfo(idPatient, _firstName, _lastName, _gender, _addressOfPatient));\r\n        patientCreatedBy[idPatient] = msg.sender;\r\n        ownerPatientCount[msg.sender] = ownerPatientCount[msg.sender].add(1);\r\n    }\r\n\r\n    function addPatient(string memory _firstName,\r\n        string memory _lastName,\r\n        string memory _gender,\r\n        string memory _addressOfPatient) public isDoctor(msg.sender) {\r\n        _createPatient(_firstName, _lastName, _gender, _addressOfPatient);\r\n        emit NewPatient(counterPatient.sub(1), _firstName, _lastName);\r\n    }\r\n\r\n    /*function getAllPatient() public view returns (PatientInfo[] memory) {\r\n        return patients;\r\n    }*/\r\n    function isPatient(uint32 _patientId) public view returns (bool) {\r\n        bool find;\r\n        if (_patientId > counterPatient.sub(1)) {\r\n            find = false;\r\n        } else {\r\n            find = true;\r\n        }\r\n        return find;\r\n    }\r\n\r\n    /*function getThePatient(uint32 _patientId) public view returns (PatientInfo memory) { \r\n        PatientInfo memory patient = patients[_patientId];\r\n        return patient;\r\n    }*/\r\n    function getThePatient(uint32 _patientId) public view returns (string memory, string memory, string memory, string memory) { \r\n        /*string memory _firstName = patients[_patientId].firstName;\r\n        string memory _lastName = patients[_patientId].lastName;\r\n        string memory _gender = patients[_patientId].gender;\r\n        string memory _addressOfPatient = patients[_patientId].addressOfPatient;\r\n        return (_firstName, _lastName, _gender, _addressOfPatient);*/\r\n        return (\r\n            patients[_patientId].firstName,\r\n            patients[_patientId].lastName,\r\n            patients[_patientId].gender,\r\n            patients[_patientId].addressOfPatient\r\n        );\r\n    }\r\n    \r\n    /* Record the non-variable biological examinations of a patient i.e blood group, rhesus, electrophoresis\r\n    It records these parameters once time */\r\n    function setNonVariableExamination(string memory _bloodGroup,\r\n        string memory _rhesus,\r\n        string memory _electrophoresis,\r\n        uint _patientId) public isDoctor(msg.sender) {\r\n        require(nonVariableExaminationOfPatientCount[_patientId] == 0, 'This patient has already non variable examination setting');\r\n        nonVariableExaminationOfPatient[_patientId] = NonVariableExaminationInfo(_bloodGroup,\r\n        _rhesus,\r\n        _electrophoresis,\r\n        _patientId);\r\n        nonVariableExaminationOfPatientCount[_patientId] = nonVariableExaminationOfPatientCount[_patientId].add(1);\r\n    }\r\n\r\n    // Recover the non-variable biological examinations of a patient i.e blood group, rhesus, electrophoresis\r\n    /*function getNonVariableExamination(uint _patientId) public view returns (NonVariableExaminationInfo memory){\r\n        return nonVariableExaminationOfPatient[_patientId];\r\n    }*/\r\n    function getNonVariableExamination(uint _patientId) public view returns (string memory, string memory, string memory){\r\n        /*string memory _bloodGroup = nonVariableExaminationOfPatient[_patientId].bloodGroup;\r\n        string memory _rhesus = nonVariableExaminationOfPatient[_patientId].rhesus;\r\n        string memory _electrophoresis = nonVariableExaminationOfPatient[_patientId].electrophoresis;\r\n        return (_bloodGroup, _rhesus, _electrophoresis);*/\r\n        return (\r\n            nonVariableExaminationOfPatient[_patientId].bloodGroup,\r\n            nonVariableExaminationOfPatient[_patientId].rhesus,\r\n            nonVariableExaminationOfPatient[_patientId].electrophoresis\r\n        );\r\n    }\r\n\r\n    // Add a speciality medicine prescribe by the doctor to any patient\r\n    function prescribeSpecialtyMedicine(string memory _documentCode,\r\n        string memory _medicationCode,\r\n        string memory _medicationName,\r\n        string memory _normalStartDate,\r\n        string memory _normalEndDate,\r\n        string memory _DosageUnit,\r\n        uint _DosageQuantity,\r\n        string memory _prescriptionDate,\r\n        string memory _observation,\r\n        uint _patientId) public isDoctor(msg.sender) {\r\n        allSpecialtyMedicine.push(SpecialtyMedicineInfo(\r\n            _documentCode,\r\n            _medicationCode,\r\n            _medicationName,\r\n            _normalStartDate,\r\n            _normalEndDate,\r\n            _DosageUnit,\r\n            _DosageQuantity,\r\n            _prescriptionDate,\r\n            _observation,\r\n            _patientId\r\n        ));\r\n        specialtyMedicineToPatientCount[_patientId] = specialtyMedicineToPatientCount[_patientId].add(1);\r\n    }\r\n\r\n    function medicineCountOfPatient(uint _patientId) public view returns (uint) {\r\n        return specialtyMedicineToPatientCount[_patientId];\r\n    }\r\n\r\n    // During the use of the drug the patient noticed side effects. He reports them to the doctor who records them\r\n    function setObservationAfterPrescription(uint _patientId,\r\n        string memory _documentCode,\r\n        string memory _medicationCode,\r\n        string memory _observation) public isDoctor(msg.sender) returns (bool) {\r\n        uint i;\r\n        for(i = 0; i < allSpecialtyMedicine.length; i++) {\r\n            if (allSpecialtyMedicine[i].patientId == _patientId &&\r\n                keccak256(abi.encodePacked(allSpecialtyMedicine[i].documentCode)) == keccak256(abi.encodePacked(_documentCode)) &&\r\n                keccak256(abi.encodePacked(allSpecialtyMedicine[i].medicationCode)) == keccak256(abi.encodePacked(_medicationCode))) {\r\n                allSpecialtyMedicine[i].observation = string(abi.encodePacked(allSpecialtyMedicine[i].observation, \" \",_observation));\r\n                return true;\r\n            }\r\n        }\r\n        if (i == allSpecialtyMedicine.length) {\r\n            return false;\r\n        }\r\n    }\r\n\r\n    // Get all medecide took by one patient\r\n    /*function getAllPrescribeMedicine(uint _patientId) public view returns (SpecialtyMedicineInfo[] memory) {\r\n        SpecialtyMedicineInfo[] memory allMedicine = new SpecialtyMedicineInfo[](specialtyMedicineToPatientCount[_patientId]);\r\n        uint counter = 0;\r\n        for(uint i = 0; i < allSpecialtyMedicine.length; i++) {\r\n            if (allSpecialtyMedicine[i].patientId == _patientId) {\r\n                allMedicine[counter] = allSpecialtyMedicine[i];\r\n                counter = counter.add(1);\r\n            }\r\n        }\r\n        return allMedicine;\r\n    }*/\r\n    function getAllPrescribeMedicine(uint _patientId) public view returns (uint[] memory) {\r\n        uint[] memory allMedicine = new uint[](specialtyMedicineToPatientCount[_patientId]);\r\n        uint counter = 0;\r\n        for(uint i = 0; i < allSpecialtyMedicine.length; i++) {\r\n            if (allSpecialtyMedicine[i].patientId == _patientId) {\r\n                allMedicine[counter] = i;\r\n                counter = counter.add(1);\r\n            }\r\n        }\r\n        return allMedicine; \r\n    }\r\n\r\n    function getPrescribeMedicine1(uint _documentId) public view returns (string memory, string memory, string memory, string memory) {\r\n        /*string memory _medicationCode = allSpecialtyMedicine[_documentId].medicationCode;\r\n        string memory _medicationName = allSpecialtyMedicine[_documentId].medicationName;\r\n        string memory _normalStartDate = allSpecialtyMedicine[_documentId].normalStartDate;\r\n        string memory _normalEndDate = allSpecialtyMedicine[_documentId].normalEndDate;\r\n        string memory _DosageUnit = allSpecialtyMedicine[_documentId].DosageUnit;\r\n        uint _DosageQuantity = allSpecialtyMedicine[_documentId].DosageQuantity;\r\n        string memory _prescriptionDate = allSpecialtyMedicine[_documentId].prescriptionDate;\r\n        string memory _observation = allSpecialtyMedicine[_documentId].observation;\r\n        uint _patientId = allSpecialtyMedicine[_documentId].patientId;\r\n\r\n        return (_medicationCode, _medicationName, _normalStartDate, _normalEndDate, _DosageUnit, _DosageQuantity, _prescriptionDate, _observation, _patientId);*/\r\n        return (\r\n            allSpecialtyMedicine[_documentId].medicationCode,\r\n            allSpecialtyMedicine[_documentId].medicationName,\r\n            allSpecialtyMedicine[_documentId].normalStartDate,\r\n            allSpecialtyMedicine[_documentId].normalEndDate\r\n        );\r\n    }\r\n\r\n    function getPrescribeMedicine2(uint _documentId) public view returns (string memory, uint, string memory, string memory, uint){//, string memory, string memory, uint) {\r\n        /*string memory _medicationCode = allSpecialtyMedicine[_documentId].medicationCode;\r\n        string memory _medicationName = allSpecialtyMedicine[_documentId].medicationName;\r\n        string memory _normalStartDate = allSpecialtyMedicine[_documentId].normalStartDate;\r\n        string memory _normalEndDate = allSpecialtyMedicine[_documentId].normalEndDate;\r\n        string memory _DosageUnit = allSpecialtyMedicine[_documentId].DosageUnit;\r\n        uint _DosageQuantity = allSpecialtyMedicine[_documentId].DosageQuantity;\r\n        string memory _prescriptionDate = allSpecialtyMedicine[_documentId].prescriptionDate;\r\n        string memory _observation = allSpecialtyMedicine[_documentId].observation;\r\n        uint _patientId = allSpecialtyMedicine[_documentId].patientId;\r\n\r\n        return (_medicationCode, _medicationName, _normalStartDate, _normalEndDate, _DosageUnit, _DosageQuantity, _prescriptionDate, _observation, _patientId);*/\r\n        return (\r\n            allSpecialtyMedicine[_documentId].DosageUnit,\r\n            allSpecialtyMedicine[_documentId].DosageQuantity,\r\n            allSpecialtyMedicine[_documentId].prescriptionDate,\r\n            allSpecialtyMedicine[_documentId].observation,\r\n            allSpecialtyMedicine[_documentId].patientId\r\n        );\r\n    }\r\n    // Add alergies record\r\n    function addAllergy(uint _allergytId, string memory _allergyName, string memory _observation, uint _patientId) public isDoctor(msg.sender) {\r\n        allAllergies.push(AllergyInfo(\r\n            _allergytId,\r\n            _allergyName,\r\n            _observation,\r\n            _patientId\r\n        ));\r\n        counterAllergy = counterAllergy.add(1);\r\n        allergyPatientCount[_patientId] = allergyPatientCount[_patientId].add(1);\r\n\r\n    }\r\n\r\n    function allergyCountOfPatient(uint _patientId) public view returns (uint) {\r\n        return allergyPatientCount[_patientId];\r\n    }\r\n\r\n    // Get allergies of a patient through its Id\r\n    function getAllergies(uint _patientId) public view returns (uint[] memory) {\r\n        uint[] memory allAllergiesOfPatient = new uint[](allergyPatientCount[_patientId]);\r\n        uint counter = 0;\r\n        for(uint i = 0; i < allAllergies.length; i++) {\r\n            if (allAllergies[i].patientId == _patientId) {\r\n                allAllergiesOfPatient[counter] = allAllergies[i].allergyId;\r\n                counter = counter.add(1);\r\n            }\r\n        }\r\n        return (allAllergiesOfPatient);\r\n    }\r\n\r\n    function getAllergy(uint _allergyId) public view returns (uint, string memory, string memory, uint) {\r\n        /*string memory _allergyname = allAllergies[_allergyId].allergyName;\r\n        string memory _observation = allAllergies[_allergyId].observation;\r\n        uint _patientId = allAllergies[_allergyId].patientId;\r\n        return (_allergyname, _observation, _patientId);*/\r\n        return (\r\n            _allergyId,\r\n            allAllergies[_allergyId].allergyName,\r\n            allAllergies[_allergyId].observation,\r\n            allAllergies[_allergyId].patientId\r\n        );\r\n    }\r\n\r\n\r\n    //Records a medical examination prescription made by a doctor\r\n    function orderAnExamination(uint _patientId,\r\n        uint _docExaminationId,\r\n        string memory _codeExaminationName,\r\n        string memory _examinationName,\r\n        string memory _orderedDate) public isDoctor(msg.sender) {\r\n        orderExamination.push(ExaminationInfo(_patientId,\r\n        _docExaminationId,\r\n        _codeExaminationName,\r\n        _examinationName,\r\n        _orderedDate));\r\n        orderExaminationToPatientCount[_patientId] = orderExaminationToPatientCount[_patientId].add(1);\r\n    }\r\n\r\n    //Returns all the different medical exams prescribed to a given patient\r\n    /*function allExaminationOrderToPatient(uint _patientId) public view returns (ExaminationInfo[] memory){\r\n        ExaminationInfo[] memory myExaminations = new ExaminationInfo[](orderExaminationToPatientCount[_patientId]);\r\n        uint counter = 0;\r\n        for(uint i = 0; i < orderExamination.length; i++) {\r\n            if (orderExamination[i].patientId == _patientId) {\r\n                myExaminations[counter] = orderExamination[i];\r\n                counter = counter.add(1);\r\n            }\r\n        }\r\n        return myExaminations;\r\n    }*/\r\n    function allExaminationOrderToPatient(uint _patientId) public view returns (uint[] memory){\r\n        uint[] memory myExaminations = new uint[](orderExaminationToPatientCount[_patientId]);\r\n        uint counter = 0;\r\n        for(uint i = 0; i < orderExamination.length; i++) {\r\n            if (orderExamination[i].patientId == _patientId) {\r\n                myExaminations[counter] = i;\r\n                counter = counter.add(1);\r\n            }\r\n        }\r\n        return myExaminations;\r\n    }\r\n\r\n    function getExaminationOrder(uint _docExaminationId) public view returns (string memory, string memory, string memory, uint) {\r\n        /*string memory _codeExaminationName = orderExamination[_docExaminationId].codeExaminationName;\r\n        string memory _examinationName = orderExamination[_docExaminationId].examinationName;\r\n        string memory _orderedDate = orderExamination[_docExaminationId].orderedDate;\r\n        uint _patientId = orderExamination[_docExaminationId].patientId;\r\n        return (_codeExaminationName, _examinationName, _orderedDate, _patientId);*/\r\n        return (\r\n            orderExamination[_docExaminationId].codeExaminationName,\r\n            orderExamination[_docExaminationId].examinationName,\r\n            orderExamination[_docExaminationId].orderedDate,\r\n            orderExamination[_docExaminationId].patientId\r\n        );\r\n    }\r\n\r\n    //Record the result of a prescribed medical examination\r\n    function addResultOfOrderExamination(uint _docResultId,\r\n        uint _docExaminationId,\r\n        string memory _resultCode,\r\n        string memory _codeResultName,\r\n        string memory _observationDate) public isDoctor(msg.sender){\r\n        resultOfAnExamination[_docExaminationId] = ResultExaminationInfo(_docResultId,\r\n        _docExaminationId,\r\n        _resultCode,\r\n        _codeResultName,\r\n        _observationDate);\r\n    }\r\n\r\n    //Recover the result of an examination prescribed by a doctor\r\n    function getResultOfOrderExamination(uint _docExaminationId) public view returns (uint, string memory, string memory, string memory) {\r\n        /*uint _docResultId = resultOfAnExamination[_docExaminationId].docResultId;\r\n        string memory _resultCode = resultOfAnExamination[_docExaminationId].resultCode;\r\n        string memory _codeResultName = resultOfAnExamination[_docExaminationId].codeResultName;\r\n        string memory _observationDate = resultOfAnExamination[_docExaminationId].observationDate;\r\n\r\n        return (_docResultId, _resultCode, _codeResultName, _observationDate);*/\r\n        return (\r\n            resultOfAnExamination[_docExaminationId].docResultId,\r\n            resultOfAnExamination[_docExaminationId].resultCode,\r\n            resultOfAnExamination[_docExaminationId].codeResultName,\r\n            resultOfAnExamination[_docExaminationId].observationDate\r\n        );\r\n    }\r\n\r\n    //Record the result detail of a prescribed medical examination\r\n    function addResultDetailExamination(uint _docResultId,\r\n        string memory _componentName,\r\n        string memory _labName,\r\n        string memory _resultValue,\r\n        string memory _resultObservation) public isDoctor(msg.sender) {\r\n        detailOfResultExamination[_docResultId] = ResultExaminationDetailInfo(_docResultId,\r\n        _componentName,\r\n        _labName,\r\n        _resultValue,\r\n        _resultObservation);\r\n    }\r\n\r\n    //Recover the result detail of an examination prescribed by a doctor\r\n    function getResultDetailExamination(uint _docResultId) public view returns (string memory, string memory, string memory, string memory) {\r\n        /*string memory _componentName = detailOfResultExamination[_docResultId].componentName;\r\n        string memory _labName = detailOfResultExamination[_docResultId].labName;\r\n        string memory _resultValue = detailOfResultExamination[_docResultId].resultValue;\r\n        string memory _resultObservation = detailOfResultExamination[_docResultId].resultObservation;\r\n\r\n        return (_componentName, _labName, _resultValue, _resultObservation);*/\r\n        return (\r\n            detailOfResultExamination[_docResultId].componentName,\r\n            detailOfResultExamination[_docResultId].labName,\r\n            detailOfResultExamination[_docResultId].resultValue,\r\n            detailOfResultExamination[_docResultId].resultObservation\r\n        );\r\n    }\r\n}",
  "sourcePath": "C:/Ethereum/healthcareBook/contracts/Patient.sol",
  "compiler": {
    "name": "solc",
    "version": "0.7.1+commit.f4a555be.Emscripten.clang"
  },
  "schemaVersion": "3.2.5",
  "updatedAt": "2020-10-21T08:04:15.742Z",
  "networkType": "ethereum",
  "devdoc": {
    "kind": "dev",
    "methods": {
      "isOwner()": {
        "returns": {
          "_0": "true if `msg.sender` is the owner of the contract."
        }
      },
      "owner()": {
        "returns": {
          "_0": "the address of the owner."
        }
      },
      "renounceOwnership()": {
        "details": "Allows the current owner to relinquish control of the contract."
      },
      "transferOwnership(address)": {
        "details": "Allows the current owner to transfer control of the contract to a newOwner.",
        "params": {
          "newOwner": "The address to transfer ownership to."
        }
      }
    },
    "version": 1
  },
  "userdoc": {
    "kind": "user",
    "methods": {
      "renounceOwnership()": {
        "notice": "Renouncing to ownership will leave the contract without an owner. It will not be possible to call the functions with the `onlyOwner` modifier anymore."
      }
    },
    "version": 1
  }
}